:104FD700EF44C8F5BC00000000E5BC30E4FB53BC5F
:104FE700EFAFBDEF75F004A4FFAEF0E5BE5403FDCF
:034FF700EF4DFF7C
:014FFA002294
:0CE98E00EFF5C48EC375C65A75C6A522ED
:0DE97400E4F5C7F5C5F5C675C380F5C422EE
:10E9510075C78175C50112E98E00AFC27E0012E94B
:01E961007441
:01E962002292
:10E93D0075C78175C502EFF5C48EC38DC212E993FB
:04E94D000002E97467
:0DE9810075C78175C50312E98E0002E974A7
:10CAF300FFFFFFFFFAB7EF27E428D9B0CFB9C63A53
:10CB0300BD2DB48EAC58A4869D1495FF8F4388DC4D
:10CB130082C87D04778B725B6D7168CA646160350E
:10CB23005C42588454F8519C4E6B4B6348804832A6
:10CB330046E544E042603F983CAF39C336E7342AC8
:10CB430031922F242CE22ACA28DA2710256823E001
:10CB53002273211E1FE01EB51D9B1C8F1B901A9D67
:10CB630019B518D517FE172E166615A514E9143531
:10CB7300138612DD1239119B110310700FE10F5749
:10CB83000ED20E500DD20D570CDE0C670BF20B7D3F
:10CB93000B090AD80A9E0A5C0A1609CC09800934D3
:10CBA30008E8089F0857081207D007920757071F7E
:10CBB30006EA06B80689065C0632060A05E405BFDE
:0CCBC300059B057905570536051504F49F
:10AD8D0001300042002E07D041000E0041004C0062
:10AD9D00410040004200730000420051000041009C
:10ADAD0019004100460141004714410014004200C2
:10ADBD002C0000022E0BB841001D00420032000095
:10ADCD0041001C004100290041000D2041000F20D1
:10ADDD0041001320410036304100373041003930F9
:10ADED00410045004100040041004100023C0000CB
:10ADFD0002460000022800C8021400C80113000218
:10AE0D002A00000219006401400041002B0A0226AD
:10AE1D000000024403E801210041002A0A41003CE0
:10AE2D00004200170000420015000042004A0000D9
:10AE3D00420011000242004F003241004200420028
:10AE4D0027000042003A000041001000020A006491
:10AE5D00020C0000010E00010F0001100001110095
:10AE6D0041000000410001004100020041000300CB
:03AE7D00011200BF
:103E3F00853C46853D47056EE56EC3940322E0FE43
:103E4F00A3E0FFC3E5339FFDE5329EFCE4121BB6F2
:103E5F009000BBE0F8A3E0F9A3E0FAA3E0FB229FF8
:103E6F00FDE09EFCE4121BB6E4FBFA79C87842121F
:103E7F001A9B9000BB021D969000BFE0FCA3E0FDD3
:103E8F00A3E0FEA3E0FF22900007E4F0A3746EF01E
:103E9F00900055E4F0A374CBF090005B7401F0A395
:103EAF007418F09000617401F0A37474F0900067BF
:103EBF007401F0A374CCF022900009E4F0A3747D98
:103ECF00F0900059E4F0A374C1F090005F7401F01A
:103EDF00A37418F09000657401F0A37473F0900050
:103EEF006B7401F0A374C4F022F0A37467F0900018
:103EFF0053E4F0A374ADF0900057E4F0A374F5F021
:103F0F0090005D7401F0A37449F09000637401F0A8
:103F1F00A374B0F022900034E0F538A3E0F5392215
:103F2F00E0FCA3E0FDC3EF9DEE9C22338F82F5836F
:103F3F00121D3AD3FFE5739FE57295F022AC3CADAD
:103F4F003DE4121BB69000BF22E0FEA3E0FFD39525
:103F5F0033EE953222FFE53C34FFD3FEE5299FE592
:103F6F00289E22E0FEA3E0FFC322EEF0A3EFF0D3E2
:103F7F002290002BE0753800F53922E4121BB6A809
:103F8F0004A905AA06AB0722E4F0D3E51E9488E541
:103F9F001D941322121A9BE4FBFA22D3E51E94D030
:103FAF00E51D940722E4900023F0A3F0227C007D0E
:103FBF000A121CAFC3ED9405EC940022C3E53D95A6
:103FCF0029FFE53C9528FEC3EF22D3900044E095EE
:103FDF000D900043E0950C22E4FCFD7B607AEAF93A
:103FEF00F8D3021D80900011E4F0A37414F0229016
:103FFF000025E4F0A37432F022E0FFA3E090006903
:10400F00CFF0A3EFF022E0FFA3E090006DCFF0A37D
:10401F00EFF022E0FFA3E090006FCFF0A3EFF022CC
:10402F00CFF0EFA3F0900069E022CFF0EFA3F09074
:10403F00006DE022CFF0EFA3F090006FE022CFF001
:10404F00EFA3F0900071E0221218A19000BF021DA3
:10405F0096E0FEA3E0FFD39400EE94002290004D73
:10406F00749CF0A37440F02290004F7401F0A3747D
:10407F00C2F022C3E56C9490E56B940922C3E56C02
:10408F009460E56B940922C3E56C9436E56B940953
:10409F0022C3E56C9412E56B940922C3E56C94F48A
:1040AF00E56B940822C3E56C94E2E56B940822C398
:1040BF00E56C94D6E56B940822C3E56C94C4E56B6C
:1040CF00940822C3E56C94A0E56B940822C3E56CB9
:1040DF009482E56B94082285361F85372022D3E51D
:1040EF00209400E51F940022D3E51E9464E51D94EF
:0C40FF000022E4900002F0900001F0228A
:10A8650075C13F12E49412E96312000E123F249061
:10A87500001CE06005755E648003755E0112AF24FF
:10A8850090000EE0600312000E75C13F12C174D333
:10A89500E53D952DE53C952C4006852C3C852D3DCB
:10A8A500E520451F604FD3E52594D0E52494074066
:10A8B5000812AF24E4F524F525D3E54294D0E5410B
:10A8C5009407400812C937E4F541F542900051E07C
:10A8D5007002A3E0701FE55E64196019E566600803
:10A8E50090007A7401F0800D12DDB4900051742748
:10A8F500F0A37410F0D3900049E09422900048E052
:10A9050094015005E55EB46407E4F544F54580031C
:10A91500122DC9E55C455B700DE5167003751604CF
:10A9250085195B851A5C90000EE0600812000EE444
:10A9350090000EF0E52F452E700312317BC3E529FB
:10A94500953DE528953C5014123FCB9496EE940026
:10A95500400AE52B452A7004900010F0E53D24ECF3
:10A96500FFE53C34FFC3123F6A4021E53D241EFF4D
:10A97500E4353C123F695014900010E0700EE52B51
:10A98500452A700804F0753800753964900011E0A7
:10A995007002A3E0601F900042E0601990004AE059
:10A9A5007002A3E0700F85463C85473DF538753943
:10A9B50064900042F0E520451F7015F544F545E526
:10A9C500307003123F24753001E4F522F523801D14
:10A9D500E5234522701785143C85153DE530700348
:10A9E500123F24753001E490004AF0A3F090003A3C
:10A9F5001240604012EF94F4EE9401500A1221F6D1
:10AA0500E490003AF0A3F090002712406050030252
:10AA1500A88EEF94F4EE9401400302A88E12E6DCB2
:0AAA2500E4900027F0A3F002A88ED1
:04CE30008C708D7104
:10CE3400E4F574F575E57124FFFFE57034FFAD0783
:10CE4400FCE4F578F579E57525E0FFE574338F8228
:10CE5400F583121D3AC3123F434005AE74AF7522E9
:10CE6400ED25E0FFEC123F3A5005AF05AE0422C3B6
:10CE7400E5759DE5749C506FE5752DFFE5743CC325
:10CE840013F576EF13F57725E0FFE576338F82F51A
:10CE940083121D3AFFAEF065737003E5726E60474E
:10CEA400C3E5739FE5729E5013E5772401FFE435D3
:10CEB40076FEEF25E0FFEE123F3A502BE57725E0B2
:10CEC400FFE576123F3A4006AC76AD77800685766C
:10CED400748577750579E579AE787002057814D391
:0BCEE4009571EE95704088AE76AF7738
:01CEEF002220
:10AF2400E4F56BF56C756A32F544F545C290FFFEA5
:10AF34000FBF00010EBE03F8BFE8F5E4F569E5694B
:10AF4400C3956A50137F03124FD7EF256CF56CEE4F
:10AF5400356BF56B056980E6AE6BAF6CAD6A7C0052
:10AF6400121CAF8E6B8F6CAC6BAD6CE4121BB67B9A
:10AF7400357A5E79FA783E121992C004C005C0068B
:10AF8400C007AC48AD49123F8AD007D006D005D0DF
:10AF940004123FA3797A7844121992121BEF8E6B34
:10AFA4008F6C12408240099000387464F002B078CB
:10AFB400124082500E12408C4009900038745AF0AE
:10AFC40002B07812408C500E12409640099000381E
:10AFD4007450F002B078124096500E1240A040090E
:10AFE4009000387446F002B0781240A0500E12401F
:10AFF400AA4009900038743CF002B0781240AA507C
:10B004000E1240B440099000387432F002B0781245
:10B0140040B4500D1240BE40089000387428F080AF
:10B02400531240BE500D1240C84008900038741EA0
:10B03400F080411240C8500D1240D24008900038B0
:10B044007414F0802F1240D2500D1240DC4008904E
:10B054000038740AF0801D1240DC5013C3E56C9470
:10B0640034E56B940840089000387405F08005E4DA
:10B07400900038F0AE6BAF6C123FBCAE6BAF6C7C23
:10B08400007D0A400E121CAFEF2401FFE43E900045
:0EB09400488007121CAF900048EEF0A3EFF0CA
:01B0A200228B
:10C93700756A32E4F56BF56CF569E569C3956A507C
:10C94700137F07124FD7EF256CF56CEE356BF56B40
:10C95700056980E6AE6BAF6CAD6A7C00121CAF8ECA
:10C967006B8F6CD3E56C94C2E56B9401500BC3E5F8
:10C977006C940AE56B94005007E4900046F080063B
:10C987009000467401F0900046E06074AC6BAD6CAB
:10C99700E4121BB6E4FBFA79A0783B121992AB07B5
:10C9A700AA06A905A804E4FFFE7D207C40123FA348
:10C9B700798078BF1218A1123F8EE4FFFE7D967C26
:10C9C70043121A9BC004C005C006C00790003DE093
:10C9D700FCE4121BBBD003D002D001D00012199285
:10C9E700121BEF7BFF7ACA79F38E728F737D6E7C91
:10C9F7000012CE30EF24ECFFEE34FF9000308009B8
:0DCA0700900047E0FF900030E4F0A3EFF056
:01CA140022FF
:04E91100AD07AC069C
:10E91500EDF4FFEFC4333354C0FEEC543F4206ED33
:01E92500FFF2
:01E9260022CE
:04E44B008E718F72CD
:10E44F0012E9518F73E5722401FFE43571FE12E971
:10E45F0051AD07E573F454C0FFE573543F4FFFC44C
:10E46F0013135403FEED5403B5060FEF543F7574A9
:10E47F0000F575F574EDF575800674FFF574F57597
:04E48F00AE74AF7543
:01E493002266
:04E5ED008E6D8F6E32
:10E5F100AF05AE0412E911AD07AC06ECF570756F0D
:10E6010000E56E2401FFE4356DFE12E93DAD70AF0A
:10E611006EAE6D12E93DAF6EAE6D12E44BBEFF06FC
:08E62100BFFF037F00227F010F
:01E6290022CE
:10000E00E4F56DF56E7F007E0212E44B90001EEF5C
:10001E00F0C394014006E0D39403400890001E7490
:10002E0001F08003756E05123E4540D9E4F56E7FF2
:10003E00107E0012E44BEF645A600AE4F56D9000F6
:10004E000E04F0800B756D01756E05E490000EF0D8
:10005E00123E4540DAE56D64016003020906F56E55
:10006E007F247E0012E44B8E2C8F2DD3E52D94BC75
:10007E00E52C94024008752C01752DEA8003756EEF
:10008E0005123E4540DAE4F56E7F727E0012E44BB7
:10009E0090001F123F79952DEE952C400C90001F6D
:1000AE00E52CF0A3E52DF08003756E05123E45405C
:1000BE00D8E4F56E7F747E0012E44B900021123F5F
:1000CE0079952DEE952C400C900021E52CF0A3E5B2
:1000DE002DF08003756E05123E4540D8E4F56E7F17
:1000EE00707E0012E44B90004CEFF0D39464400409
:1000FE00E4F08003756E05123E4540E3E4F56E7F35
:10010E00767E0012E44B900040EFF0D394644004EE
:10011E00E4F08003756E05123E4540E3E4F56E7F14
:10012E00347E0012E44B90003CEFF0D39402400476
:10013E00E4F08003756E05123E4540E3E4F56E7FF4
:10014E00387E0012E44B900034123F7994E8EE941E
:10015E0003400B900034E4F0A374DCF08003756E62
:10016E0005123E4540D9E4F56E7F7A7E0012E44BCF
:10017E0090002BEFF0D3942840057414F080037593
:10018E006E05123E4540E2E4F56E7F787E0012E485
:10019E004B900043123F7994DEEE9403400B900097
:1001AE0043E4F0A3740AF08003756E05123E4540D9
:1001BE00D9E4F56E7F367E0012E44B900075EFF0B9
:1001CE00D3940540057402F08003756E059000759A
:1001DE00E0FF64016009EF64056004EFB4040C9065
:1001EE00004D744EF0A37420F08017EFB402051288
:1001FE00406C800EEFB4030A90004D74EAF0A374C5
:10020E0060F0123E4540ADE4F56E7F2C7E0012E4A8
:10021E004B900047EFF0D3944640057414F08003E2
:10022E00756E05123E4540E2E4F56E7F7C7E00124F
:10023E00E44B90003DEFF0D394C85006E0C39432E7
:10024E00500890003D7464F08003756E05123E45B3
:10025E0040D9E4F56E7F307E0012E44B8E148F157C
:10026E00D3E5159490E514940140087514007515A6
:10027E00288003756E05123E4540DAE4F56E7F6CFC
:10028E007E0012E44B90004F123F79952DEE952C87
:10029E0040051240778003756E05123E4540DFE43F
:1002AE00F56E7F6E7E0012E44B900011123F799432
:1002BE00DEEE94034005123FF48003756E05123E88
:1002CE004540DFE4F56E120A014008753C00753DAD
:1002DE00C88003756E05123E3F40EBE4F56E7F0459
:1002EE007E0012E44B8E368F37D3E53794C0E53659
:1002FE0094125006E5374536700875360175372C61
:10030E008003756E051240E6123E4540D1E4F56E4F
:10031E007F067E0012E44B8E3A8F3BD3E53B94DE94
:10032E00E53A9403500BC3E53B940AE53A9400502A
:10033E0008753A00753B1E8003756E05853A228559
:10034E003B23123E4540C9E4F56E7F047E0212E463
:10035E004B900025EEF0A3EFF0C39401EE94004015
:10036E000CD3E094E8900025E094034005123FFE84
:10037E008003756E05123E4540D0E4F56E7F147E07
:10038E000012E44B8F40E540D394014005E4F54064
:10039E008003756E05123E4540E3E4F56E7F167ED2
:1003AE000012E44B8E348F35D3E53594DEE534946C
:1003BE00035006E5354534700875340075350A80EE
:1003CE0003756E05123E4540D4E4F56E7F207E0027
:1003DE0012E44B8F60E560B4FF05E4F560800375B1
:1003EE006E05123E4540E5E4F56E7F227E0012E476
:1003FE004B8F67E567B4FF05E4F5678003756E05FF
:10040E00123E4540E5E4F56E7F187E0012E44B8EF9
:10041E00488F49D3E54994E7E54894034008754869
:10042E00007549898003756E05123E4540DAE4F584
:10043E006E7F2A7E0012E44B90002AEFF0D3940ACE
:10044E0040057402F08003756E05123E4540E2E4ED
:10045E00F56E7F6A7E0012E44B90001DEFF0D39490
:10046E00634004E4F08003756E05123E4540E3E4FC
:10047E00F56E7F417E0012E44B900005EEF0A3EF87
:10048E00F0BEFF0EBFFF0B900005E4F0A37467F003
:10049E008003756E05123E4540D8E4F56E7F437EAF
:1004AE000012E44B900053EEF0A3EFF0BEFF0EBF30
:1004BE00FF0B900053E4F0A374ADF08003756E054E
:1004CE00123E4540D8E4F56E7F457E0012E44B9017
:1004DE000057EEF0A3EFF0BEFF0EBFFF0B900057DC
:1004EE00E4F0A374F5F08003756E05123E4540D816
:1004FE00E4F56E7F477E0012E44B90005DEEF0A3B4
:10050E00EFF0BEFF0FBFFF0C90005D7401F0A374FF
:10051E0049F08003756E05123E4540D7E4F56E7FB7
:10052E00497E0012E44B900063EEF0A3EFF0BEFFA5
:10053E0008BFFF05123F198003756E05123E454038
:10054E00DEE4F56E7F4B7E0012E44B900007EEF07A
:10055E00A3EFF0BEFF0EBFFF0B900007E4F0A374F5
:10056E006EF08003756E05123E4540D8E4F56E7F41
:10057E004D7E0012E44B900055EEF0A3EFF0BEFF5F
:10058E000EBFFF0B900055E4F0A374CBF080037503
:10059E006E05123E4540D8E4F56E7F4F7E0012E4A4
:1005AE004B90005BEEF0A3EFF0BEFF0FBFFF0C9081
:1005BE00005B7401F0A37418F08003756E05123E93
:1005CE004540D7E4F56E7F527E0012E44B900061F9
:1005DE00EEF0A3EFF0BEFF0FBFFF0C9000617401B1
:1005EE00F0A37474F08003756E05123E4540D7E497
:1005FE00F56E7F547E0012E44B900067EEF0A3EF91
:10060E00F0BEFF08BFFF05123EBC8003756E0512DB
:10061E003E4540DEE4F56E7F567E0012E44B9000C0
:10062E0009EEF0A3EFF0BEFF0EBFFF0B900009E442
:10063E00F0A3747DF08003756E05123E4540D8E43C
:10064E00F56E7F587E0012E44B900059EEF0A3EF4A
:10065E00F0BEFF0EBFFF0B900059E4F0A374C1F083
:10066E008003756E05123E4540D8E4F56E7F5A7EC6
:10067E000012E44B90005FEEF0A3EFF0BEFF0FBF51
:10068E00FF0C90005F7401F0A37418F08003756E78
:10069E0005123E4540D7E4F56E7F5C7E0012E44BBA
:1006AE00900065EEF0A3EFF0BEFF0FBFFF0C9000C1
:1006BE00657401F0A37473F08003756E05123E45E8
:1006CE0040D7E4F56E7F5E7E0012E44B90006BEE39
:1006DE00F0A3EFF0BEFF08BFFF05123EED800375DD
:1006EE006E05123E4540DE900053123F729000069A
:1006FE00E09F900005E09E501C900057123F2F5037
:10070E001490005D123F72ED9FEC9E5008900063B6
:10071E00123F2F4007900005E4123EF8900055124C
:10072E003F72900008E09F900007E09E501C9000E2
:10073E005B123F2F5014900061123F72ED9FEC9EA2
:10074E005008900067123F2F4003123E96900059BA
:10075E00123F7290000AE09F900009E09E501C909C
:10076E00005F123F2F5014900065123F72ED9FEC08
:10077E009E500890006B123F2F4003123EC7900010
:10078E001EE0FFB4014E900005E0FDA3E090000BCB
:10079E00CDF0A3EDF0900053E0FDA3E0900069CD05
:1007AE00F0A3EDF0900057E0FDA3E090006DCDF0CA
:1007BE00A3EDF090005DE0FDA3E090006FCDF0A3FF
:1007CE00EDF0900063E0FDA3E0900071CDF0A3ED9D
:1007DE00F0020841EFB40226900007E0FFA3E0907C
:1007EE00000BCFF0A3EFF090005512400890005B85
:1007FE0012401590006112402290006780299000EF
:10080E001EE0B4032E900009E0FFA3E0A3CFF0A3F7
:10081E00EFF090005912400890005F1240159000C2
:10082E006512402290006BE0FFA3E0900071CFF0C4
:10083E00A3EFF0E4F56E7F327E0012E44B90001AC7
:10084E00123F79942CEE9401400890001A123FF753
:10085E008003756E05123E4540DCE4F56E7F607ECA
:10086E000012E44B900036EFF0BFFF057430F080BD
:10087E0003756E05123E4540E4E4F56E7F627E0020
:10088E0012E44B900037EFF0BFFF057430F0800399
:10089E00756E05123E4540E4E4F56E7F647E0012EF
:1008AE00E44B900039EFF0BFFF057430F080037514
:1008BE006E05123E4540E4E4F56E7F667E0012E45E
:1008CE004B90001CEFF0D3940A4004E4F0800375C3
:1008DE006E05123E4540E3E4F56E7F687E0012E43D
:1008EE004B900041EFF0D394014004E4F080037587
:1008FE006E05123E4540E32290001FE4F0A374FA09
:10090E00F0A37401F0A3749AF0E490004CF0900000
:10091E00407404F0E490003CF0900034F0A374DCDA
:10092E00F090002B7414F09000431240019000756B
:10093E007402F012406C752C01752DEA900047740C
:10094E0014F0751400751528123FF4124077E4F573
:10095E006E120A014008753C00753DC88003756E25
:10096E0005123E3F40EB75360175372C1240E67589
:10097E003A00753B1E853A22853B23123FFEE4F575
:10098E0040F53475350A756001756701F54875498E
:10099E008990002A7402F090003D7464F0E4900097
:1009AE001DF090001AF0A37414F09000367430F01D
:1009BE00A3F0900039F0E490001CF0900041F0900C
:1009CE000005123EF8123E96123EC790000BE4F060
:1009DE00A37467F0900069E4F0A374ADF090006D1D
:1009EE00E4F0A374F5F0A37401F0A37449F0A3121C
:0209FE003F1C9C
:100A0000227402FFFE12E44B8E3C8F3DD3E53D95F0
:060A10002DE53C952C22AF
:10E6DC007F007E0212E98190001EE0FD7C007F002D
:10E6EC007E0212E5EDEF60E8AD3DAC3C7402FFFE3E
:10E6FC0012E5EDEF60DA900025E0FCA3E0FD7F046D
:08E70C007E0212E5EDEF60C88A
:01E7140022E2
:0BE9A6009000277407F0A374D0F0224B
:1021F600E4F569E4FFFE12E981AF690569EFD3945E
:1022060003400302252390001EE0FFB40142900024
:102216000BE0FDA3E0900005CDF0ED124032FDA3EA
:10222600E0900053CDF0ED12403CFDA3E090005746
:10223600CDF0ED124046FDA3E090005DCDF0ED122D
:102246004050FDA3E0900063CDF0A3EDF00222C460
:10225600EFB4023090000BE0FFA3E09000071240BD
:102266002FFFA3E0900055124039FFA3E090005BDA
:10227600124043FFA3E090006112404DFFA3E0909F
:102286000067803590001EE0B4033390000BE0FF3A
:10229600A3E090000912402FFFA3E09000591240DE
:1022A60039FFA3E090005F124043FFA3E090006572
:1022B60012404DFFA3E090006BCFF0A3EFF090002B
:1022C600057F4112252470030221F99000537F43B4
:1022D60012252470030221F99000577F45122530FC
:1022E60070030221F990005D7F47122530700302CA
:1022F60021F99000637F4912253C70030221F99071
:1023060000077F4B12253C70030221F99000557F90
:102316004D12254870030221F990005B7F4F12256C
:102326004870030221F99000617F52122554700310
:102336000221F99000677F5412255470030221F997
:102346009000097F5612256B70030221F9900059FF
:102356007F5812256B70030221F990005F7F5A1295
:10236600258D70030221F99000657F5C12258D7022
:10237600030221F990006B7F5E1225A470030221EF
:10238600F99000367F6012256070030221F99000F3
:10239600377F6212256070030221F99000397F644D
:1023A60012257770030221F990001C7F66122577AB
:1023B60070030221F99000417F68122582700302A2
:1023C60021F990001A7F321225A470030221F99098
:1023D600001D7F6A12258270030221F9AD49AC48BF
:1023E6007F1812260870030221F99000407F7612AA
:1023F600259970030221F990004C7F70122599707F
:10240600030221F990001F7F721225BB700302217F
:10241600F99000217F741225BB70030221F9900008
:102426002B7F7A1225B070030221F99000347F3891
:102436001225D270030221F99000437F781225D22B
:1024460070030221F99000477F2C1225B070030219
:1024560021F9AD37AC367F0412260870030221F944
:10246600AD3BAC3A7F0612260F70030221F9E54018
:102476007F141225E970030221F9AD35AC347F16BD
:1024860012260F70030221F9E5607F201225E970FC
:10249600030221F9E567FD7F221225FF7003022161
:1024A600F9AD2DAC2C7F247E0012E5EDEF70030212
:1024B60021F990004F7F6C1225F370030221F990E9
:1024C60000117F6E1225F370030221F990002A7F16
:1024D6002A1225C770030221F990003D7F7C122540
:1024E600C770030221F9AD15AC147F307E0012E5EA
:1024F600EDEF70030221F990003C7F341225DE7067
:10250600030221F99000757F361225DE7003022141
:0D251600F97D5A7F101225FF70030221F994
:1025230022E0FCA3E0FD7E0012E5EDEF22E0FCA338
:10253300E0FD7E0012E5EDEF22E0FCA3E0FD7E006E
:1025430012E5EDEF22E0FCA3E0FD7E0012E5EDEFE6
:1025530022E0FCA3E0FD7E0012E5EDEF22E0FD7C2E
:10256300007E0012E5EDEF22E0FCA3E0FD7E001209
:10257300E5EDEF22E0FD7C007E0012E5EDEF22E0C9
:10258300FD7C007E0012E5EDEF22E0FCA3E0FD7E82
:102593000012E5EDEF22E0FD7C007E0012E5EDEF99
:1025A30022E0FCA3E0FD7E0012E5EDEF22E0FD7CDE
:1025B300007E0012E5EDEF22E0FCA3E0FD7E0012B9
:1025C300E5EDEF22E0FD7C007E0012E5EDEF22E079
:1025D300FCA3E0FD7E0012E5EDEF22E0FD7C007E32
:1025E3000012E5EDEF22FD7C007E0012E5EDEF2207
:1025F300E0FCA3E0FD7E0012E5EDEF227C007E000F
:1026030012E5EDEF227E0012E5EDEF227E0012E5EA
:03261300EDEF22C6
:0BE9B10090003A7407F0A374D0F0222D
:10E49400E4F59575961FF5B175B2E0439128539252
:10E4A400D7439D285391FC439203D281C290C291D9
:10E4B400438E805389F0758A40758CA2C28DD28CAC
:10E4C400D2A9D2AFD2B4D2B2D2B3D288D2A812D502
:07E4D4008312E8A702000615
:03000B0002385A5E
:10385A00C0E0C0F0C083C082C0D075D000C000C034
:0D386A0001C002C003C004C005C006C007B5
:103877000509E5097002050812DE6D90002EE0705B
:1038870002A3E0600E90002FE024FFF090002EE0EE
:1038970034FFF0C3E5099470E50894175003023923
:1038A7007FD3E5239400E5229400401DE53B94DE99
:1038B700E53A94035008E523152370021522E52302
:1038C70045227020123F24801B1240ED4016050D43
:1038D700E50D7002050C123FD95009123F24750CF3
:1038E70000750D001240ED401DE53794C0E5369494
:1038F700125008E52015207002151FE520451F709E
:103907001B123F248016050DE50D7002050C123FB2
:10391700D95009123F24750C00750D007508007504
:103927000900E52345227006E55E64016006E5208F
:10393700451F701B051CE51C7002051BD39535E55B
:103947001B95344003751301900017E4F0A3F09022
:10395700002DE004F0700690002CE004F0D39000F6
:103967004BE0940090004AE09400400CA3E024FF51
:10397700F090004AE034FFF00525E52570020524A4
:103987000542E54270020541E567600FE5234522E0
:103997006009E520451F60031240E6E52F452E60CC
:1039A70008E52F152F7002152EE55945586008E5D3
:1039B70059155970021558D3E55C9400E55B9400DE
:1039C7004008E55C155C7002155BD3E52B9400E5B8
:1039D7002A94004008E52B152B7002152AAE1DAF5F
:1039E7001E123FE74008051EE51E7002051DC3E5D0
:1039F7001894E8E517940350080518E518700205B0
:103A070017D3E5399400E53894004010E560600C61
:103A1700E539153970021538C2838002D283053F14
:103A2700E53F7002053EE52745266008E52715278F
:103A370070021526900075E06022E55EB4011D90C6
:103A47000017E0FEA3E0FF123FE74017900018E0E1
:103A570004F07006900017E004F08007900017E468
:103A6700F0A3F0D3900033E09400900032E094008C
:103A7700400CA3E024FFF0900032E034FFF0D39035
:103A87000052E09400900051E064809480400CA3C1
:103A9700E024FFF0900051E034FFF0D390003FE0C6
:103AA700940090003EE064809480400CA3E024FFE3
:103AB700F090003EE034FFF0D3900074E094009063
:103AC7000073E09400400CA3E024FFF0900073E043
:103AD70034FFF0D3900028E09400900027E0940092
:103AE700400CA3E024FFF0900027E034FFF0D390D0
:103AF700003BE0940090003AE09400400CA3E024DF
:103B0700FFF090003AE034FFF0D3E50B9545E50A66
:103B17009544400CE50B150B7002150AC290800AFC
:103B2700E50B150B7002150AD290E50B450A7006D6
:063B3700750A03750BE89E
:103B3D00D007D006D005D004D003D002D001D000DC
:0B3B4D00D0D0D082D083D0F0D0E03286
:10DE6D0030B20630B303751001E510603E20B23BB1
:10DE7D0020B338E50E6018E4F510E5406005751621
:10DE8D00028003751603E55E64096003123F80E5A9
:10DE9D000F6018E4F510E5406005751603800375F5
:10DEAD001602E55E64096003123F80A2B2E433F509
:07DEBD000EA2B3E433F50FE0
:01DEC400223B
:03000300024FFBAE
:014FFB003283
:10C1740020B40C900000E07006F51DF51E04F012CA
:10C184003FAA4030900000E0602A20B427900002CB
:10C19400E0702190002BE0FFD39413400875380120
:10C1A40075392C8009EF6006753800753996900052
:10C1B400027401F0123F99402E900000E0602820A4
:10C1C400B425A3E0702190002BE0FFD39413400822
:10C1D4007538027539588009EF600675380175396C
:10C1E4002C9000017401F090004CE06064E55E6402
:10C1F40001705E30B445900000E0603F123F97400C
:10C204000575160C8032123FAA400575160B80285E
:10C214001240F74023E511700990007304F0A374F1
:10C22400F4F00511E511B4020C751605E4F511904E
:10C234000073F0A3F0123F80124101E51164017014
:10C244003B900073E07002A3E07031751601F511A4
:10C254002230B428900000E06022123F9740057518
:10C26400160C8015123FAA400575160B800B124060
:0CC27400F74006751601123F80124101D0
:01C28000229B
:102DC900E53D24F6123F644008756B00756C32804E
:102DD90022123FCB941EEE9400400AE53D9404E58F
:102DE9003C94015008756B00756CC88006756B01C1
:102DF900756C90D3E53F956CE53E956B4007E4F51E
:102E090044F545C290E56C2403FFE4356BFED3E538
:102E19003F9FE53E9E500302317AE4F532F5339047
:102E290000C4F0E4F569F56A9000C3F07F05124F1C
:102E3900D7EF256AF56AEE3569F5699000C3E004B4
:102E4900F0E0C3942040E5E56AAE697805CEC31386
:102E5900CE13D8F9F56A8E692533F533E56935322C
:102E6900F5329000C4E004F0E0C3940840B5E533BE
:102E7900AE327803CEC313CE13D8F9F5338E32D3DD
:102E890094BCE532940240160512E512D3940A4027
:102E9900149000197401F0E4F544F5458007E490B5
:102EA9000019F0F512900003E0FF900019E0FE6FA1
:102EB9006012900003EEF090002EE07002A3E07023
:102EC90003123F2490006F123F585018C3900072AC
:102ED900E0900071123E6E90006F123E4D123FA3BA
:102EE9007996801E90006D123F58501AC390007059
:102EF900E090006F123E6E90006D123E4D123FA39E
:102F0900794878438022900069123F58501FC39036
:102F1900006EE09FFD90006D123E70900069123EB8
:102F29004D123FA379C878421218A1801E90000B58
:102F3900123F58501BC390006AE09FFD9000691230
:102F49003E7090000B123E4D121A9B12405A800A95
:102F59009000BF121DA2000000009000BF123E6247
:102F6900C000C001C002C00390002AE0FF7E0090AB
:102F79000030E0FCA3E0FD121C9D7C007D0A121DBF
:102F890004AC06AD07EC121BB6D003D002D001D0B9
:102F990000124057E4F53EF53FAC3CAD3D123F51C0
:102FA900123E62121B385017123F4C123E62121821
:102FB9009DE4FBFA79407841121B386002502E12C9
:102FC9003F4C123E62121B38600250030230B6AC0D
:102FD9003CAD3D123F8A123E8712189DE4FBFA79F7
:102FE900207841121B38600250030230B690002449
:102FF900E004F07006900023E004F0123E87121BF3
:10300900EFEFB53D07EEB53C03123FB4E520451F90
:103019006006E52345227003123FB4D3900024E0F3
:103029009406900023E09400402F123F4C123E6218
:10303900121B385024900026E0240AF0900025E065
:103049003400F0D3A3E09484900025E09403404E2B
:103059007403F0A37484F08045D3900024E09402B3
:10306900900023E094004039123F4C123E62121B3B
:1030790038602E402C900025123F72940AEE94007D
:103089004005E024F6800FC3EF9401EE9400400E52
:10309900900026E024FFF0900025E034FFF0123F75
:1030A900B4900025E0F544A3E0F545801F123FB434
:1030B900AC3CAD3D123F51123E62121B38500875AF
:1030C90044037545E88005E4F544F545D3E53D94A9
:1030D90028E53C94004010E520451F600AE53D9431
:1030E90032E53C94005005E4F544F54590001A1288
:1030F9003F72900049E09F900048E09E5005E4F53A
:1031090044F545E5216401605E123E87121BEF120A
:103119003FBC400D123E87E4FBFA79A0784012408B
:1031290057E4FBFA79207841123E87121A9B121B49
:10313900EF7C007D0A121C9D8E288F29E53D240510
:10314900FFE4353CFEC3123F6B500FE53D24FB12F3
:103159003F64400675260B7527B8E527452660119B
:10316900853C28853D2922123E87121BEF8E288F28
:01317900292C
:01317A002232
:101201003230002020002D003A0020202020200034
:101211004D6F6E646179005475657364617900572F
:1012210065646E6573646179005468757273646195
:101231007900467269646179005361747572646101
:10124100790053756E64617900436C6F636B207331
:10125100657474696E670020002020202020202002
:1012610020202000485F543A005365743A00202042
:101271002020202020202020202020202000337327
:1012810000536C6565702074696D65207365740029
:101291006D696E75746500202020202020204F4646
:1012A1004620202020200050726573732033732064
:1012B100746F206578697400202020202020202070
:1012C100202020202020202000566962726174694C
:1012D1006F6E205377697463680048696768206C92
:1012E1006576656C004C6F77206C6576656C005394
:1012F100656E73697469766974790056352E3000AC
:101301007875656A75647A2E74616F62616F2E6398
:101311006F6D007875656A755F7431320056206CA7
:101321006F776572206C696D69740054656D70200A
:101331006C6F636B696E67006C6F636B696E6700DE
:1013410020204F4646202000496E70757420706140
:101351007373776F72643A0050617373776F72645D
:101361002073657400204F46462000204F4E2020F8
:10137100005072657373004F46462074696D652095
:101381007365740035300041443D00353020006301
:101391006F7272656374696F6E0031303000323084
:1013A10030003330300034303000526F6F6D2074B4
:1013B100656D702073657400526F6F6D3A005365EF
:1013C100742054656D703A00456E636F64657220D8
:1013D10053657400202020436C6F636B77697365DC
:1013E1002020200020416E74692D636C6F636B7740
:1013F1006973650052657365742064656661756C17
:1014010074007265736574200063616E63656C00BE
:1014110077726974652041444A2076616C75650074
:101421004C616E67756167652053657400456E6731
:101431006C69736800323073003430730036307376
:10144100004C4F474F0053637265656E736176655B
:1014510072205365740044656C61792032307300E9
:1014610044656C6179203430730044656C61792086
:10147100363073004F46460053686F77204C4F4714
:101481004F0053686F7720436C6F636B002B0063D1
:10149100756520736F756E6420766F6C756D650070
:1014A1004B657920536F756E642000536F756E64C0
:1014B10020006D696E0049726F6E2073656C656303
:1014C10074696F6E004E4F2E0049726F6E00536F3C
:1014D100756E64204F4E2F4F4646004F4E200053ED
:1014E100687574646F776E206D6F64650041667412
:1014F10065722074686520736C656570004166745F
:1015010065722074686520626F6F742000312E004F
:10151100322E00332E00342E00352E00362E0037A9
:101521002E00382E00392E0031302E0031312E00A0
:1015310031322E0031332E0031342E0031352E0060
:1015410031362E0031372E0031382E0031392E0040
:1015510032302E0032312E0032322E0032332E0044
:1015610032342E0032352E0032362E0032372E0024
:1015710032382E0032392E0033302E00312E49728E
:101581006F6E2073656C65637400322E536C6565F4
:10159100702074696D6500332E536C65657020543D
:1015A100454D5000342E4F46462074696D652073B9
:1015B100657400352E4F4646206D6F646520736556
:1015C1007400362E4C4344204F46462074696D65A5
:1015D10000372E536F756E64204F4E2F4F464600D5
:1015E100382E43756520736F756E6400392E526F06
:1015F1006F6D2054656D70207365740031302E5409
:10160100454D5020436F6566662E2E0031312E35D3
:101611003020202043414C0031322E313030202007
:101621002043414C0031332E3230302020204341C1
:101631004C0031342E33303020202043414C0031D6
:10164100352E34303020202043414C0031362E528B
:10165100657365742064656661756C740031372E3D
:101661004C616E6775616765205365740031382E72
:1016710056657273696F6E0031392E456E636F6402
:101681006572205365740032302E5669627261743E
:10169100696F6E2053570032312E537570706C791B
:1016A1002043414C0032322E4D6178696D756D20B9
:1016B10054454D500032332E6D696E2E20766F6C7D
:1016C100746167650032342E436C6F636B20736500
:1016D100740032352E54454D50204C6F636B696E4A
:1016E100670032362E50617373776F7264207365B1
:1016F100740032372E53637265656E73617665725D
:101701000032382E646F75626C655F636C69636B60
:101711000032392E53696E676C6520636C69636BA7
:101721000033302E45786974004C4344204F4646BF
:101731002074696D652073657400537570706C79E0
:101741002043414C2000312E3000302E0054454DB5
:101751005020436F656666696369656E74004D610B
:1017610078696D756D2054454D5000536C656570F9
:101771002054454D50002100536C656570696E67BA
:101781002100566962726174696F6E2077616B65C1
:1017910000686173207368757420646F776E21002F
:1017A10050726573732077616B6520757000566F99
:1017B1006C7461676520746F6F206C6F7721004FC7
:1017C1007220746F206368616E67652074686500BC
:1017D1006C6F776572206C696D69742076616C75C8
:1017E1000065206F662074686520766F6C74616790
:1017F10065004E6F2069726F6E210020485F5400B2
:101801002053657400202020202020202020006407
:101811006F75626C6520636C69636B20736574001E
:101821002061206B657920746F20736C6565702071
:10183100002061204B65792073687574646F776E41
:1018410020002049726F6E2073656C656374696F47
:101851006E20002054656D702073656C656374693A
:101861006F6E20002061204B6579204869676854BC
:10187100454D5020006B656570004D696E00206616
:101881006F7265766572200053696E676C652063BF
:091891006C69636B20736574003F
:10AE800002620000016401015E00015A01015D01DE
:10AE9000016500015F010161FF01560101660001CA
:10AEA0004A004200C500004200C70000014B0001FB
:10AEB0004C00014D18014E00014F000150004100AF
:10AEC000C9004100CA0001510001520001530001B4
:05AED0005400015500D3
:101DD30075692C900048E0FEA3E0FF7C007D0A12A9
:101DE3001CAFAA06AB07757302757410E4F5752270
:101DF300E4F55E756501755D01E55ED3941F2224EC
:101E030020FF7BFF7A12797F7D062290001FE0FA84
:101E1300A3E0FB75730322E56D2450900099FFE066
:101E2300FB7A00757302757410757501227BFF7A56
:101E33001279A87D062275580075596422755E01D2
:101E4300E490000DF090000FF0900013F090004527
:101E5300F0900004F0755D0122900048E0FEA3E0DD
:101E6300FF7C007D0A121CAFAA04AB057573012227
:101E730090004DE0FEA3E0FFD3900018E09F900098
:101E830017E09E22755E01755D01227BFF7A13794F
:101E9300887D037F28222410FF7B137D06222430B4
:101EA300FF7B317D06222440FF7B327D06222450B6
:101EB300FF7B337D06222460FF7B347D0622900066
:101EC30034E0F538A3E0F53985361F853720E4F58E
:101ED3003090004FE0F53CA3E0F53D22D390001293
:101EE300E09400900011E0940022900035E0246318
:101EF300FF900034E03400FE7D647C00121CAFAA26
:101F030006AB07227BFF7A127958222450FF7B020B
:101F1300E4FD227BFF7A137990E4FD7F2F22EF24E7
:101F2300CEFFEE34FFF0A3EFF022E569241090001A
:101F33002AFFE0FB7A0075730122EF2432FFE43EAF
:101F4300F0A3EFF0227A1279987BFF7D03E4FF225E
:101F53002440FFE4FBFD22E55724FE540322FF7BCC
:101F6300FF7A1279917D0322E0FEA3E0FFC3227B77
:101F7300127D067F08227B137D067F18227B317D2D
:101F8300067F38227B327D067F48227B337D067FA6
:101F930058227B347D067F6822853A22853B2322A3
:101FA3007A1879547BFF7D02E4FF22E4F55D90000B
:101FB3003EF0A3F022E5692420FF7B567D03227BBC
:101FC300FF7A1479757D037F34222430FF7BFF7AF7
:101FD30017797722900034E0F538A3E0F53922C36E
:101FE30090001BE094B490001AE09400229000301B
:101FF300E0FAA3E0FBC3EA64809480E569229000E1
:10200300427401F0E4F51BF51CF513227BFF7A12F1
:10201300790422C3E53B94DEE53A940322C3E53712
:1020230094C0E5369412227B1CE4FD7F182285467A
:102033003C85473D22900011E0FFA3E090004ACF8A
:10204300F0A3EFF022EF24CEFFEE34FFF0A3EFF086
:10205300229000117403F0A374DEF0227BFF7A1345
:10206300799FE4FD227A18797B7BFF7D057F6722C8
:10207300C3900020E0952D90001FE0952C22C39083
:102083000022E0952D900021E0952C22C3900012B0
:10209300E094DE900011E0940322C3900050E09599
:1020A3002D90004FE0952C22C3900020E0940A90DD
:1020B300001FE0940022C3900022E0940A900021C4
:1020C300E0940022C3900050E0940A90004FE09403
:1020D30000227BFF7D03E4FF227B1CE4FD7F34228F
:1020E3007B1FE4FD7F44227B20E4FD7F54227BFFA2
:1020F300E4FD7F0822E0FEA3E0FFD322E56D244840
:10210300FF7BFF22757103AB29AA282290001EE0F2
:10211300C394032290004CE0FF640422900040E04B
:10212300FF64042290003E740BF0A374B8F0229075
:10213300003E7407F0A374D0F022E4900017F0A3DC
:10214300F02290006AE09F900069E09E2290006E6A
:10215300E09F90006DE09E22900070E09F90006FE2
:10216300E09E22EF2432FFE43EF0A3EFF022900042
:102173004D744EF0A37420F02290004D749CF0A394
:102183007440F02290004D74E6F0A37478F0227B43
:10219300FF7A1879067D057F38227BFF7A187965E7
:1021A3007D02E4FF229000C7E0FEA3E0FF4E227B06
:1021B300207D067F78227BFFE4FD7F1C227BFF7D51
:1021C30003AF692275692C90002AE07BFF229000FF
:1021D3001E7401F022353CF53CE4900042F0227578
:1021E3006501E5571313543F2290002BE075380027
:0321F300F5392299
:10CBCF008F6D8D6E90003CE06004640270447BFFBB
:10CBDF007A12790112CC90900097121E2112CC7309
:10CBEF002420FF7B83AD6E12DB76E56D2430FF9042
:10CBFF000098121E2212CC732440FF7B84AD6E125C
:10CC0F00DB76121E1A12CC882460FF7B85AD6E0274
:10CC1F00DB7612200F12CC90FF7BFF7A127901ADD9
:10CC2F006E12E62AE56D2420FF900097121E221245
:10CC3F00CC88243012CC7BE56D2438FF90009812FD
:10CC4F001E22AD6E12DB14E56D244812CC7B121E32
:10CC5F001AAD6E12DB14E56D2460FF12200FAD6E5E
:10CC6F0012E62A22AD6E12DB14E56D22FF7BFF7AEE
:10CC7F00127907AD6E12E62A22AD6E12DB14E56D46
:0DCC8F0022AD6EAF6D12E62AE56D24102275
:10B611008F6D8D6E90009A121E2212DB14E56D243F
:10B6210010FF7BFF7A127909AD6E12E62AE56D24CF
:10B6310018FF90009B121E22AD6E12DB14E56D24E3
:10B6410028FF7BFF7A12790BAD6E12E62A90003C3F
:10B65100E060076402600302B6DFE56D2438FF7B1A
:10B661008CAD6E12DB76E56D2448FF7B8DAD6E12DD
:10B67100DB7690009DE0B40109E56D2458FF7B78ED
:10B68100805790009DE0B40209E56D2458FF7B8747
:10B69100804790009DE0B40309E56D2458FF7B8845
:10B6A100803790009DE0B40409E56D2458FF7B8943
:10B6B100802790009DE0B40509E56D2458FF7B8A41
:10B6C100801790009DE0B40609E56D2458FF7B8B3F
:10B6D1008007E56D2458FF7B85AD6E02DB76900017
:10B6E1009DE0B401091220FF7A1279118067900060
:10B6F1009DE0B4020DE56D2440FF7BFF7A127918BD
:10B70100805390009DE0B4030DE56D2430FF7BFF75
:10B711007A127920803F90009DE0B4040DE56D24FC
:10B7210038FF7BFF7A12792A802B90009DE0B405C7
:10B73100091220FF7A127933801B90009DE0B40634
:10B741000DE56D2438FF7BFF7A12793A80071220CC
:0BB75100FF7A127943AD6E12E62A2247
:10D6AE0090003EE07002A3E0701BE54AC394025066
:10D6BE0004054A8003E4F54A90003E7427F0A374F3
:10D6CE0010F012E8A7E54A7007F56A756B06800B35
:10D6DE00E54AB4010B756A06E4F56B756C02800EB3
:10D6EE00E54AB40209756A04756B06E4F56CAD6A19
:10D6FE007F0812CBCF90003CE06003B40206AD6B06
:10D70E007F0C8004AD6B7F0412B611122107AD6C35
:10D71E007F1812DD567B0BAD6C7F4812D8377B0C11
:07D72E00AD6C7F5802D837F3
:10B37000E55D600612E8A7E4F55D90003CE060073B
:10B380006402600302B42F7B09E4FD7F2012DB76A8
:10B390007B8EE4FD7F3012DB76E4FBFD7F4012DB29
:10B3A000767B02E4FD7F5012DB76900045E070046E
:10B3B0007B8080027B207D037F1812E4DB900045B8
:10B3C000E0B401047B8080027B207D037F3C12E49B
:10B3D000DB900045E0B402047B8080027B207D038B
:10B3E0007F5A12E4DB900045E0B403047B808002C6
:10B3F0007B207D067F1012E4DB900045E0B404045E
:10B400007B8080027B207D067F2812E4DB90004554
:10B41000E0B405047B8080027B207D067F6412E41B
:10B42000DB7D027F0812CBCF7D057F0C02B6117B3E
:10B43000FF7A12794AE4FD7F0C12E62A900045E07B
:10B4400070047B8080027B207D037F2812E4DB90E8
:10B450000045E0B401047B8080027B207D037F44B3
:10B4600012E4DB900045E0B402047B8080027B2084
:10B470007D037F5A12E4DB900045E0B403047B8037
:10B4800080027B207D067F0812E4DB900045E0B45B
:10B4900004047B8080027B207D067F2012E4DB9009
:10B4A0000045E0B405047B8080027B207D067F5050
:10B4B00012E4DB7D057F0412B6117D027F0812CBFA
:02B4C000CF2299
:103B58009000C6E004F070069000C5E004F0900004
:103B68004EE024F4FF90004DE03401FEC3121E7CA9
:103B7800500312E8A790007AE07003023CEB900033
:103B8800C5E07004A3E064147025123E2B70069003
:103B980000C7E004F0D39000C8E094199000C7E093
:103BA80094004004E4F0A3F0E49000C5F0A3F01200
:103BB80021A87003023C71EF64014E7006756A0B10
:103BC800023CD6EF64024E7002805CEF64034E70D4
:103BD80006756A23023CB8EF64044E7008756A2FB4
:103BE800F56B023E08EF64054E7006756A2F023CBD
:103BF800B8EF64064E7006756A2F023CC7EF64077B
:103C08004E7006756A2F023CD6EF64084E70067532
:103C18006A2F023CE5EF64094E7006756A23023C80
:103C2800D6EF640A4E7006756A17023CC7EF640B3C
:103C38004E7005756A0B8078EF640C4E7007F56A54
:103C4800F56B023E08EF640D4E7004F56A8061EF73
:103C5800640E4E7004F56A8066EF640F4E7004F5CA
:103C68006A806BEF64104E7004F56A8070EF64111F
:103C78004E7005756A188065EF64124E7005756A96
:103C880018804BEF64134E7005756A188031EF6425
:103C9800144E7005756A188017EF64154E70087514
:103CA8006A18F56B023E08EF64164E7009756A18BB
:103CB800756B01023E08EF64174E7009756A187536
:103CC8006B02023E08EF64184E7009756A18756B2E
:103CD80003023E08EF64194E7006756A18756B0486
:103CE800023E089000C5E07004A3E0641470251239
:103CF8003E2B70069000C7E004F0D39000C8E09413
:103D0800089000C7E094004004E4F0A3F0E49000B9
:103D1800C5F0A3F01221A870028055EF64014E701F
:103D280002803FEF64024E70028029EF64034E70F8
:103D3800028013EF64044E7007756A18F56B8036BD
:103D4800EF64054E7008756A18756B018028EF647A
:103D5800064E7008756A18756B02801AEF64074E74
:103D68007008756A18756B03800CEF64084E70064E
:103D7800756A18756B04E56B7005756C048026E52B
:103D88006BB40105756C05801CE56BB40205756C98
:103D9800068012E56BB40305756C018008E56BB409
:103DA8000403756C02EF30E0247B20AD6CE4FF1255
:103DB800E4DB7B20AD6C7F7012E4DB7B20AD6C7F95
:103DC8007812E4DBAD6C7F0812CBCF803390003CD7
:103DD800E060046402701412200FAD6CE4FF12E678
:103DE8002A121F07123E357F0C8012121F07AD6C76
:103DF800E4FF12E62A121F07123E357F0412B6119D
:103E0800122107AD6BAF6A12DD56E56A2430FF7BDD
:103E18000BAD6B12D837E56A2440FF7B0CAD6B12F3
:023E2800D83789
:103E2A002212E8A79000C8E004F022AD6C7F781255
:053E3A00E62AAD6C2238
:10CFA500121DD67D06FF12DB147B2E7D067F101227
:10CFB500E4DB121E5C121DEC7D067F1812DB147B70
:10CFC500567D067F2012E4DB7F2812D04D9000307D
:10CFD500121F6BEE6480948040068F6A7B20800B65
:10CFE500900030A3E0F404F56A7B2D7D067F2C12BA
:10CFF500E4DBE56AFB7A00121DE97D067F3412DB6E
:10D00500147B1C7D067F4412DB767F5412D04D3095
:10D0150081047B2E80027B207D067F5A12E4DB7B18
:10D02500207D067F6212E4DB1221B212E4DB900060
:10D035002CE0FEA3E0FF7D0A121EFD757303121D91
:08D04500EC7D067F6402DB14A0
:08D04D007B207D0612E4DB22CA
:10410B00121E7350030241AD900075E09404500FE2
:10411B00E54B6403600612E8A7754B03023B58900E
:10412B000075E064047061E54B6404600912E8A754
:10413B0012E85A754B04054CE54CB40515E4F54CE7
:10414B00E54DC3943850087408254DF54D80037523
:10415B004D187BFF7A12795A7D067F1812E62A7565
:10416B007303121DECAB29AA287D06AF4D12DB148D
:10417B00E54D2418FF7B207D0612E4DBE54D242062
:10418B00FF7B1C7D0602DB76900075E06405600307
:10419B0002433FE54B6405600612E8A7754B050229
:1041AB00D6AEE55D600612E8A7121FAEE54B6401C3
:1041BB00600A12E8A7E4121FB1754B0190003CE0B6
:1041CB0060046402703A900042E0600C7B79E4FD7D
:1041DB00FF12DB767B498009E4FBFDFF12DB767B6C
:1041EB0001E4FD7F1012DB767B3AE4FD7F2012E4C5
:1041FB00DB757303121DEC7F281243407F4480252F
:10420B00900042E07BFF60067A12796580047A1297
:10421B00796AE4FDFF12E62A757303121DEC7F2009
:10422B001243407F3C12DB7690001EE0FFD39401DB
:10423B00400EEF121F36121DEC7D037F7712DB143D
:10424B00121FE25010AE44AF457C007D0A121CAF2A
:10425B008F69EF8008900038E0F569E569FB7A001B
:10426B00757303121DECFD7F5D12DB147B25E4FDE2
:10427B007F7712E4DBE52B452A6009757103AB3DB3
:10428B00AA3C80031221077D027F1812DD567B0B9F
:10429B007D027F4812D8377B0C7D027F5812D837AE
:1042AB0090003EE07002A3E0600302433FE54E60E6
:1042BB000690007AE0600912CFA512212702432550
:1042CB00E54E64017018FF12434D7F7012434D127F
:1042DB0021B212E4DB7D067F0812CBCF8039E54E8D
:1042EB006402703690003CE060046402701412208B
:1042FB000F7D06E4FF12E62A121F071243557F0CAF
:10430B008012121F077D06E4FF12E62A121F071206
:10431B0043557F0412B61112213290007AE06007E8
:10432B00E4F54E121FB122E54EC394025003054E25
:04433B0022E4F54E35
:10433F0022AB3DAA3CFD12DB147B1CE4FD227B204B
:10434F007D0612E4DB227D067F7812E62A7D0622A7
:10E96300E55D600612E8A7E4F55D12E85A755D01FE
:01E973002281
:10BF5300E55D600612E8A7E4F55D90003CE060074C
:10BF63006402600302C0177569107B07E4FDAF69C3
:10BF730012DB76E56924107B0812C05024207B096C
:10BF830012C0502430FF7B0AE4FD12DB76E5691210
:10BF93001F5312DB76E569121F0E12DB7612201691
:10BFA3005020756920AE3AAF3B121DDE12C059FF17
:10BFB3007B1D7D0312DB76E5692428FF7B1E7D0351
:10BFC30080137BFF7A12796F7D03AF6912E62A7BB8
:10BFD3000B7D037F3812DB767569087B127D06AF14
:10BFE3006912DB76E569121E9912DB76E569121E8A
:10BFF3000212E62AE569121EA112DB76E569121E1A
:10C00300A912DB76E569121EB112DB76E569121E11
:10C01300B902DB767569087BFF7A127982E4FDAF9A
:10C023006912E62A122016501275691CAE3AAF3B0C
:10C03300121DDE12C059121F618003121F4812E63F
:0CC043002AE4F569121E30AF6912E62AEB
:10C04F0022FFE4FD12DB76E569227D03AF6912DB87
:06C05F0014E5692418221B
:10B0A300E55D600612E8A7E4F55D90003CE060070B
:10B0B3006402600302B1897569087B29E4FD12B259
:10B0C3000724107B1612B1F524207B3F12B1F5241F
:10B0D300307B0B12B1FE24407B7612B1FE2450FF6D
:10B0E3007B77E4FD12DB76E5692460FF7B4AE4FDB0
:10B0F30012DB767A1279B9121F4C12E62A90001DE0
:10B10300E0645970077569287B48800D90001DE045
:10B11300645A70227569287B5D7D0312B20724107F
:10B12300FF7B037D0312DB76E5692420FF7B7D7DB6
:10B133000312DB76801475693890001DE0FB7A00FA
:10B14300121DE97D03AF6912DB147569087B127D5B
:10B1530006AF6912DB76E569121E9912DB76E569A3
:10B16300121E0212E62AE569121EA112DB76E569B8
:10B17300121EA912DB76E569121EB112DB76E569B0
:10B18300121EB902DB76E4F5697A1279CAFD12B2AE
:10B193000F7A1279B91220D512E62A90001DE0B475
:10B1A300590B7569187BFF7A1279DB801090001DAB
:10B1B300E0B45A1275691C7BFF7A1279E67D03AFFE
:10B1C3006912E62A80207569087A1279F07D0312E4
:10B1D300B20FE5692460FF90001DE0FB7A00121DA9
:10B1E300E97D0312DB14E4F569121E30AF6912E640
:01B1F3002A31
:10B1F40022FFE4FD12DB76E56922FFE4FD12DB7633
:10B20400E56922AF6912DB76E569227BFFAF69123B
:03B21400E62A2205
:10D7B900E55D600612E8A7E4F55D90003CE06004D1
:10D7C9006402703175691C7B6EE4FDAF6912DB760A
:10D7D900E56924107B6F12D830E56924207B031298
:10D7E900D830E5692430FF7B70E4FD12DB7612D86E
:10D7F900127569082275691C7BFF7A137914E4FD97
:08D80900AF6912E62A12D812E1
:10D811002275692D7BFF7A1279FC7D02AF6912E6D0
:10D821002A7BFF7A1379017D04E4FF12E62A22FFA5
:06D83100E4FD12DB76228B
:10BE3F00E55D600612E8A7E4F55D90003CE0600761
:10BE4F006402600302BEF17569107B2FE4FDAF69D8
:10BE5F0012DB76E56924107B5912BF4A24207B033D
:10BE6F0012BF4A2430FF7B3CE4FD12DB76E56912FA
:10BE7F001F5312DB76E569121F0E12DB7675692CE4
:10BE8F0090001A121DD912BF36E5692418FFC0079A
:10BE9F0090001A121E5F121DECD0077D0312DB14E7
:10BEAF00121FB812E4DB7569087B127D06AF6912A9
:10BEBF00DB76E569121E9912DB76E569121E021216
:10BECF00E62AE569121EA112DB76E569121EA91298
:10BEDF00DB76E569121EB112DB76E569121EB90237
:10BEEF00DB7675690C7BFF7A13791EE4FDAF69125F
:10BEFF00E62A75692C90001A121DD912BF36E56912
:10BF0F002418FFC00790001A121E5F121DECD007F5
:10BF1F007D0312DB14121FB812E4DBE4F569121E65
:06BF2F0030AF6912E62AA2
:10BF3500227D03AF6912DB14E5692410FF7B2E7D9A
:0EBF45000312E4DB22FFE4FD12DB76E5692245
:10D44300E55D600612E8A7E4F55D90003CE060044A
:10D453006402704C7569107B49E4FDAF6912DB7699
:10D46300E56924107B4A12D4DB24207B7312D4DBBE
:10D473002430FF7B01E4FD12DB76E569121F5312B2
:10D48300DB76E569121F0E12DB7675693890004171
:10D49300E060047B3B80027B0B7D04AF6902DB769B
:10D4A3007569107BFF7A13792CE4FDAF6912E62AC4
:10D4B300756924900041E07BFF60067A1379398017
:10D4C300047A1379417D03AF6912E62AE4F5691200
:07D4D3001E30AF6912E62ACA
:0AD4DA0022FFE4FD12DB76E5692273
:10B89200E55D600612E8A7E4F55D90003CE0600714
:10B8A2006402600302B932E4F5697B43FDAF6912B9
:10B8B200DB76E56924107B7112B9BE24207B451228
:10B8C200B9BE2430FF7B72E4FD12DB76E5692440C9
:10B8D200FF7B18E4FD12DB76E5692450FF7A1279CA
:10B8E20009E4FD12B98B900045E070047B80800270
:10B8F2007B2D7D05AF6912E4DB900045E0B40109C0
:10B90200E5692410FF7B808007E5692410FF7B2D09
:10B912007D0512E4DB900045E0B4020AE5692420CB
:10B92200FF7B8002B985E5692420FF7B2D02B98562
:10B93200E4F5697A137949FDAF6912B98B90004534
:10B94200E070047B8080027B2D7D05AF6912E4DB11
:10B95200900045E0B40109E5692410FF7B8080076F
:10B96200E5692410FF7B2D7D0512E4DB900045E0A4
:10B97200B40209E5692420FF7B808007E569242061
:08B98200FF7B2D7D0512E4DBC3
:10B98A00227BFF12E62A75692890000DE0FB7D03F1
:10B99A00AF6912E4DBE5692410FF90000FE0FB7D3C
:10B9AA000312E4DBE5692420FF900013E0FB7D032A
:0DB9BA0012E4DB22FFE4FD12DB76E56922DA
:104A0500E55D600612E8A7E4F55D90003CE060070F
:104A150064026003024B0A7569107B3FE4FD124C8A
:104A2500057B0C124BEF24207B72124BEF2430FFD9
:104A35007B18E4FD12DB76E569121F5312DB76E580
:104A450069121F0E12DB7675690C90001CE0700A66
:104A5500121F07124BF87B0B801090001CE06401BD
:104A6500701C121F07124BF87B3F7D0312DB76E5A6
:104A7500692418FF121F077D0312E62A801690008D
:104A85001CE0B4020F7B127D03124C05FF7B137DE6
:104A95000312DB76124BC1900045E07009E56924ED
:104AA5000AFF7B808007E569240AFF7B2D7D0512BF
:104AB500E4DB900045E0B40109E5692430FF7B8023
:104AC5008007E5692430FF7B2D7D0512E4DB90002E
:104AD50045E0B40209E5692440FF7B808007E5696C
:104AE5002440FF7B2D7D0512E4DB900045E0B403F7
:104AF5000AE5692450FF7B80024BBBE5692450FF22
:104B05007B2D024BBB7569107BFF7A137959E4FD48
:104B1500AF6912E62A75690490001CE070087BFFF6
:104B25007A137966801C90001CE0B401087BFF7A3B
:104B350013796C800D90001CE0B4020D7BFF7A1395
:104B450079727D03AF6912E62A124BC1900045E0E8
:104B55007009E5692410FF7B808007E5692410FF53
:104B65007B2D7D0512E4DB900045E0B40109E56984
:104B75002430FF7B808007E5692430FF7B2D7D0590
:104B850012E4DB900045E0B40209E5692440FF7BAF
:104B9500808007E5692440FF7B2D7D0512E4DB90CD
:104BA5000045E0B40309E5692450FF7B808007E5F3
:0B4BB500692450FF7B2D7D0512E4DB1E
:104BC00022E5692430FF900036E0FB7D0312E4DB30
:104BD000E5692440FF900037E0FB7D0312E4DBE54C
:104BE000692450FF900039E0FB7D0312E4DB22FFD3
:104BF000E4FD12DB76E569227D03AF6912E62AE562
:0F4C0000692408FF22AF6912DB76E569241022D0
:10B9C700E55D600612E8A7E4F55D90003CE06007DE
:10B9D7006402600302BA977569107B01E4FDAF69E1
:10B9E70012DB76E56924107B0912BADC24207B0B75
:10B9F70012BADC2430FF7B0CE4FD12DB76E569121A
:10BA07001F5312DB76E569121F0E12DB7612202018
:10BA1700502C756920AE36AF377C007D0A121EFFA9
:10BA2700757303121DEC12BAE52418FF7B1D7D0305
:10BA370012DB76E5692428FF7B1E7D0380137BFFDD
:10BA47007A12796F7D03AF6912E62A7B0B7D037F3C
:10BA57003812DB767569087B127D06AF6912DB76D3
:10BA6700E569121E9912DB76E569121E0212E62AB3
:10BA7700E569121EA112DB76E569121EA912DB76B3
:10BA8700E569121EB112DB76E569121EB902DB7693
:10BA97007569107BFF7A137978E4FDAF6912E62A9E
:10BAA700122020501E756918AE36AF377C007D0A0C
:10BAB700121EFF757303121DEC12BAE52420121F24
:10BAC700618003121F4812E62AE4F569121E30AF9F
:04BAD7006912E62AE0
:10BADB0022FFE4FD12DB76E569227D03AF6912DB01
:04BAEB0014E56922D3
:10CEF000E55D600612E8A7E4F55D90003CE06004A3
:10CF00006402706A7BFF7A137985E4FD7F2012E664
:10CF10002A7B1CE4FD7F3012DB767B1FE4FD7F4023
:10CF200012DB767B20E4FD7F5012DB76121E8E1220
:10CF3000E62A90000B121E11121DEC7D037F401299
:10CF4000DB14121F7212DB76121F7912DB76121EAF
:10CF5000057F2812E62A121F8012DB76121F871225
:10CF6000DB76121F8E12DB76121F9502DB767BFFBB
:10CF70007A13798CE4FDFF12E62A12202A12DB765E
:10CF8000121F1612E62A121E8E12E62A90000B12AB
:10CF90001E11121DEC7D037F4012DB14121E30E4C3
:05CFA000FF12E62A2249
:10D10100E55D600612E8A7E4F55D90003CE060048F
:10D111006402705E7A13799B1221B912E62A1220F9
:10D12100DC12DB761220E312DB761220EA12DB76C8
:10D13100121E8E12E62A900069121E11121DEC7D3C
:10D14100037F4012DB14121F7212DB76121F791259
:10D15100DB76121E057F2812E62A121F8012DB766B
:10D16100121F8712DB76121F8E12DB76121F9502B9
:10D17100DB767BFF7A13799BE4FDFF12E62A12200E
:10D181002A12DB76121F1612E62A121E8E12E62AC8
:10D19100900069121E11121DEC7D037F4012DB14F9
:09D1A100121E30E4FF12E62A22FE
:10D3A100E55D600612E8A7E4F55D90003CE06004ED
:10D3B1006402705C12205F7F1C12E62A1220DC12CC
:10D3C100DB761220E312DB761220EA12DB76121EE4
:10D3D1008E12E62A90006D121E11121DEC7D037F44
:10D3E1004012DB14121F7212DB76121F7912DB76E8
:10D3F100121E057F2812E62A121F8012DB76121FE9
:10D401008712DB76121F8E12DB76121F9502DB76F6
:10D4110012205FFF12E62A12202A12DB76121F1653
:10D4210012E62A121E8E12E62A90006D121E1112A9
:10D431001DEC7D037F4012DB14121E30E4FF12E667
:02D441002A229D
:10D1AA00E55D600612E8A7E4F55D90003CE06004E6
:10D1BA006402705E7A1379A31221B912E62A122048
:10D1CA00DC12DB761220E312DB761220EA12DB761F
:10D1DA00121E8E12E62A90006F121E11121DEC7D8D
:10D1EA00037F4012DB14121F7212DB76121F7912B0
:10D1FA00DB76121E057F2812E62A121F8012DB76C2
:10D20A00121F8712DB76121F8E12DB76121F95020F
:10D21A00DB767BFF7A1379A3E4FDFF12E62A12205C
:10D22A002A12DB76121F1612E62A121E8E12E62A1E
:10D23A0090006F121E11121DEC7D037F4012DB1449
:09D24A00121E30E4FF12E62A2254
:10D05500E55D600612E8A7E4F55D90003CE060043C
:10D06500640270617BFF7A1379A7E4FD7F1C12E6E9
:10D075002A1220DC12DB761220E312DB761220EA7C
:10D0850012DB76121E8E12E62A900071121E111204
:10D095001DEC7D037F4012DB14121F7212DB76122A
:10D0A5001F7912DB76121E057F2812E62A121F80D1
:10D0B50012DB76121F8712DB76121F8E12DB7612B9
:10D0C5001F9502DB767BFF7A1379A7E4FDFF12E655
:10D0D5002A12202A12DB76121F1612E62A121E8E3B
:10D0E50012E62A900071121E11121DEC7D037F407D
:0CD0F50012DB14121E30E4FF12E62A22A7
:10AA2F00E55D600612E8A7E4F55D90003CE0600785
:10AA3F006402600302AB347569107B53E4FDAF69A8
:10AA4F0012DB76E56924107B5412ABBD24207B49C1
:10AA5F0012ABBD24307B4A12ABEBE56924407B512E
:10AA6F0012ABEBE5692450FF7B52E4FD12DB7675E8
:10AA7F0069187B557D02AF6912DB767B497D021227
:10AA8F00ABB224207D0212ABA7121FF0400D242879
:10AA9F00FF121DE97D0212DB148005242812ABC6BC
:10AAAF00E569243812ABD3E4FB7D04AF6912DB7682
:10AABF007B017D0412ABB22420FF7B497D0412DBA6
:10AACF0076E5692430FF7B4A7D0412DB76E5692445
:10AADF00407D0412ABA7E5692448FF757303121D6F
:10AAEF00EC12ABDF246012AB9E7569047B127D06FE
:10AAFF00AF6912DB76E569121E9912DB76E56912F2
:10AB0F001E0212E62AE569121EA112DB76E5691212
:10AB1F001EA912DB76E569121EB112DB76E569120A
:10AB2F001EB902DB7675690C7BFF7A1379ABE4FDF6
:10AB3F00AF6912E62A7569187BFF7A1379B97D021E
:10AB4F00AF6912E62A121FF0400D2430FF121DE9E3
:10AB5F007D0212DB148005243012ABC6E569244058
:10AB6F0012ABD37BFF7A1379BF7D04AF6912E62A4C
:10AB7F00E5692450FF757303121DEC12ABDF2468D7
:0EAB8F0012AB9EE4F569121E30AF6912E62A81
:10AB9D0022FF7B1C7D0412DB7622FF7BFF7A12796C
:10ABAD000912E62A22E5692410FF12DB76E56922F7
:10ABBD00FFE4FD12DB76E56922FF7BFF7A12790750
:10ABCD007D0212E62A22FF7B1C7D0212DB7675695F
:10ABDD000422AB3DAA3C7D0412DB14E56922FFE49F
:05ABED00FD12DB7622E1
:10C28100E55D600612E8A7E4F55D90003CE060071B
:10C291006402600302C33F7569087B17E4FDAF695F
:10C2A10012DB76E56924107B1812C37224207B19F6
:10C2B10012C37224307B2112C37B24407B2212C320
:10C2C1007B2450FFE4FBFD12DB76E5692460FF7BF4
:10C2D10002E4FD12DB76756928E54060047B23806A
:10C2E100027B247D03AF6912DB76E5692410FF7BB5
:10C2F100097D0312DB76E5692420FF7B257D03128E
:10C30100DB767569087B127D06AF6912DB76E5691C
:10C31100121E9912DB76E569121E0212E62AE56900
:10C32100121EA112DB76E569121EA912DB76E56900
:10C33100121EB112DB76E569121EB902DB76756950
:10C34100147BFF7A1379C9E4FDAF6912E62AE5404F
:10C351007BFF60067A1379D580047A1379E57D0332
:10C36100E4FF12E62AE4F569121E30AF6912E62AEB
:10C3710022FFE4FD12DB76E56922FFE4FD12DB76A4
:03C38100E5692249
:10BD2A00E55D600612E8A7E4F55D90003CE0600777
:10BD3A006402600302BDD77569107B0DE4FD12BE73
:10BD4A00357B0E12BE2C24207B0F12BE2C2430FF12
:10BD5A007B10E4FD12DB76E569121F5312DB76E5F0
:10BD6A0069121F0E12DB76756930900014E0600AC2
:10BD7A007B0D12BE17FF7B0E80087B7E12BE17FF5B
:10BD8A007B7F7D0312DB76E4F5697B437D0612BE79
:10BD9A00357B8012BE0E24207B8112BE0E24307B9E
:10BDAA002F12BE2324407B8212BE232450FF7B1F06
:10BDBA007D0612DB76E5692460FF7B207D0612DBB7
:10BDCA0076E5692470FF7B117D0602DB7675690CC6
:10BDDA007BFF7A1379F5E4FDAF6912E62A90001425
:10BDEA00E07BFF60067A14790380047A14790A7D6D
:10BDFA00037F2812E62A7BFF7A1479117D067F04D5
:03BE0A0012E62A13
:10BE0D0022FF7D0612DB76E569227D03AF6912DB29
:10BE1D0076E569241022FF7D0612DB76E56922FFA7
:10BE2D00E4FD12DB76E56922AF6912DB76E5692464
:02BE3D001022D1
:10CC9C00E55D600612E8A7E4F55D90003CE06004F9
:10CCAC006402702412CD3990003CE0700712CD5D07
:10CCBC007B5E800B7B7A7D037F3012DB767B7B7D0A
:10CCCC00037F4012DB76803890003CE064017021D9
:10CCDC007BFF7A147921FD7F1012E62A7BFF7A14F0
:10CCEC00792E7D037F2412E62A121E30E4FF02E621
:10CCFC002A12CD3912CD5D7B5E7D037F4012DB762F
:10CD0C00121F7212DB76121F7912DB76121E057F50
:10CD1C002812E62A121F8012DB76121F8712DB768E
:10CD2C00121F8E12DB76121F9512DB76227B60E4CB
:10CD3C00FD7F2012DB767B61E4FD7F3012DB76E435
:10CD4C00FBFD7F4012DB767B02E4FD7F5012DB762D
:0BCD5C00227B287D037F3012DB762253
:104C0F00E55D600612E8A7E4F55D90003CE0600703
:104C1F0064026003024D3A7569207B37E4FDAF698A
:104C2F0012DB76E5692410FF7B56E4FD12DB76E597
:104C3F00692420FFE4FBFD12DB76E5692430FF7B5E
:104C4F0002E4FD12DB76756924900075E0FFD394C2
:104C5F00004042EF9404503D7B36124DE87B097DB6
:104C6F000312DB76900075E0B401077A14793612DF
:104C7F004DF5900075E0B402077A14793A124DF5AC
:104C8F00900075E064037067E5692420FF7BFF7A6D
:104C9F0014793E8032900075E070187569287B3763
:104CAF00124DE87B567D0312DB76E5692420FF7BEE
:104CBF000B8037900075E064047013124DCD2420E3
:104CCF00FF7BFF7A1479427D0312E62A8021900040
:104CDF0075E064057019124DCD2420FF7B097D030B
:104CEF0012DB76E5692430FF7B8E7D0312DB767550
:104CFF0069087B127D06AF6912DB76E569121E9992
:104D0F0012DB76E569121E0212E62AE569121EA170
:104D1F0012DB76E569121EA912DB76E569121EB168
:104D2F0012DB76E569121EB902DB767569047BFF2B
:104D3F007A147947E4FDAF6912E62A900075E0FF17
:104D4F00D39400403BEF9404503675691CEFB401C7
:104D5F000A7A1479571221C012E62A900075E0B42E
:104D6F00020A7A1479611221C012E62A900075E0C6
:104D7F006403703E7BFF7A14796B7D03AF69802FDC
:104D8F00900075E07005121FC28024900075E0B48A
:104D9F00040C7BFF7A1479797D037F1C80119000BE
:104DAF0075E0B4050D7BFF7A1479837D037F1812AC
:0D4DBF00E62AE4F569121E30AF6912E62AFB
:104DCC00227569207B747D03AF6912DB76E569245B
:104DDC0010FF7B757D0312DB76E569227D03AF69DD
:104DEC0012DB76E5692410FF22E5692420FF7BFFA6
:064DFC007D0312E62A22ED
:1045AB00E55D600612E8A7E4F55D90003CE060076E
:1045BB00640260030246F97B65E4FD7F1012DB7633
:1045CB007B66E4FD7F2012DB767B67E4FD7F301298
:1045DB00DB767B68E4FD7F4012DB76E4FBFD7F50EE
:1045EB0012DB767B02E4FD7F6012DB76900045E008
:1045FB0070047B8080027B207D037F4412E4DB9080
:10460B000045E0B401047B8080027B207D067F287F
:10461B0012E4DB900045E0B402047B8080027B2037
:10462B007D067F5C12E4DB7B137D027F0412DB765D
:10463B007B307D027F1412DB767B687D027F241238
:10464B00DB767B697D027F3412DB7690002BE0708A
:10465B00147B0B7D027F4412DB767B207D027F5423
:10466B0012E4DB80177D027F441247C890002BE0D9
:10467B00C313121E237D027F4C12DB147B687D0556
:10468B007F0412DB767B697D057F1412DB7690004D
:10469B0034E07002A3E0700B7B0B7D057F2412DBF3
:1046AB007680177D057F241247C8121EED757301A6
:1046BB00121E297D057F2C12DB147B0A7D057F3CA6
:1046CB0012DB767B7C7D057F4C12DB76900043E022
:1046DB00FEA3E0FF7C007D0A121EFF121E267D0545
:1046EB007F5C12DB147B1D7D057F6E02DB767BFF0F
:1046FB007A147990E4FDFF12E62A900045E07004ED
:10470B007B8080027B207D037F5C12E4DB90004585
:10471B00E0B401047B8080027B207D067F3812E4AD
:10472B00DB900045E0B402047B8080027B207D0699
:10473B007F5C12E4DB7A1479A1121FA712E62A9090
:10474B00002BE07BFF70097A1479751247D2801722
:10475B007A14798E1247D290002BE0C313121E23CA
:10476B007D027F5812DB147BFF7A1479AC7D05E454
:10477B00FF12E62A900034E07002A3E07BFF700D7D
:10478B007A1479757D057F3012E62A80187A1479B0
:10479B008E7D057F3012E62A121EED121E267D0538
:1047AB007F3812DB14900043121DD97D057F561202
:1047BB00DB147A1479B312206C12E62A227BFF7A6F
:0F47CB0014798E12E62A227D027F5012E62A22EE
:10BAEF00E55D600612E8A7E4F55D90003CE06007B5
:10BAFF006402600302BBAD7569187B2AE4FDAF6970
:10BB0F0012DB76E56924107B2B12BBFB24207B46CE
:10BB1F0012BBFB2430FF7B62E4FD12DB76E5692468
:10BB2F0040FF7B63E4FD12DB7675691C90001E12EB
:10BB3F001F35121DEC7D03AF6912DB14E569240874
:10BB4F007B6412BC0424187B2A12BC042428FF7BBC
:10BB5F002B7D0312DB76E5692438FF7B467D0312CC
:10BB6F00DB767569087B127D06AF6912DB76E569B6
:10BB7F00121E9912DB76E569121E0212E62AE5699A
:10BB8F00121EA112DB76E569121EA912DB76E5699A
:10BB9F00121EB112DB76E569121EB902DB767569EA
:10BBAF00087BFF7A1479B7E4FDAF6912E62A75694D
:10BBBF001C7BFF7A1479C67D03AF6912E62AE5690B
:10BBCF00241890001E121F34121DEC7D0312DB147B
:10BBDF00E5692428FF7BFF7A1479CA7D0312E62AD0
:0BBBEF00E4F569121E30AF6912E62A6F
:10BBFA0022FFE4FD12DB76E56922FF7D0312DB7684
:03BC0A00E56922C7
:10C76900E55D600612E8A7E4F55D90003CE060072E
:10C779006402600302C8167B38E4FD7F0812DB7689
:10C789007B39E4FD7F1812DB767B3AE4FD7F2812C2
:10C79900DB767B3BE4FD7F3812DB767B0BE4FD7FA8
:10C7A9004812DB76E4FBFD7F5812DB767B02E4FD61
:10C7B9007F6812DB767B387D037F2012DB767B393D
:10C7C9007D037F3012DB767B3A7D037F4012DB7677
:10C7D900E56060047B3B80027B0B7D037F5012DBAD
:10C7E90076121F7212DB76121F7912DB76121E0582
:10C7F9007F2812E62A121F8012DB76121F8712DBAE
:10C8090076121F8E12DB76121F9502DB767BFF7A7A
:10C819001479CFE4FD7F1012E62A7BFF7A1479ACF4
:10C829007D037F1C12E62AE5607BFF60067A147996
:10C83900DC80047A1479757D037F4C12E62A121E76
:07C8490030E4FF12E62A2291
:10B75C00E55D600612E8A7E4F55D90003CE060074B
:10B76C006402600302B839E4F5697B01FDAF69122C
:10B77C00DB76E56924107B0912B86F24207B0B1251
:10B78C00B86F24307B0C12B88224407B4012B882F4
:10B79C002450FF7B41E4FD12DB76E5692460FFE475
:10B7AC00FBFD12DB76E5692470FF7B02E4FD12DB06
:10B7BC0076756918E567600C7B0712B8782410FF62
:10B7CC007B08800A7B3F12B8782410FF7B0C7D032A
:10B7DC0012DB76E56924207B4212B88BE569242EB6
:10B7EC007B0112B88BE5692440FF7B097D0312DBDA
:10B7FC00767569087B127D06AF6912DB76E56912F6
:10B80C001E9912DB76E569121E0212E62AE5691210
:10B81C001EA112DB76E569121EA912DB76E5691210
:10B82C001EB112DB76E569121EB902DB7675690C66
:10B83C007BFF7A1479E0E4FDAF6912E62A7569049E
:10B84C00E5677BFF60067A1479EE80047A1479FE42
:10B85C007D03AF6912E62AE4F569121E30AF691256
:02B86C00E62ACA
:10B86E0022FFE4FD12DB76E569227D03AF6912DB70
:10B87E0076E56922FFE4FD12DB76E56922FF7D03A2
:04B88E0012DB762231
:100A1600E5657003020E8DE4F56512E8A7E568B496
:100A260008004003020E8D900A34F8282873020A43
:100A36004C020AD0020B5D020BF0020C90020D1E56
:100A4600020DC0020E4C7569187A15790E1210A6A1
:100A56007B2A1211707B2B120F677B461211307B9B
:100A660062120FDC7B631210187A157911120EEBE5
:100A76007B097D021210387B0A120F747A157914DD
:100A8600120FD27B071211BA7B08120F0C7B497D1D
:100A9600041211027B4A120F5A7D0412102D2450A3
:100AA6001210567A157917120FF47B011211A37BD7
:100AB60009120F1924207D061211507B0C120F40CB
:100AC60024401210CF2450020DBA7569187A157990
:100AD6001A1210A67B011211707B09120F677B0B8D
:100AE6001211307B0C120FDC7B401210E47B41129A
:100AF600105F7A15791D120EEB7B36121088E569A8
:100B06007B097D0212106A24407D02121150E569AC
:100B16007B3712111C7A157920120FD27B38120FEF
:100B2600FE7B397D0412DB767B3A120F33243012BA
:100B360011D27B0212119A7A157923120FF47B6572
:100B46001211A37B66120F197B67120FC72430128E
:100B560010CF2440020DBA75691E7A157926121037
:100B6600EF7B53120FBA7B54E4FD12DB767B4912FE
:100B76000FA27B4A1211097B511210E4E569245039
:100B86007B5212118875691E7A15792912104C7BD1
:100B9600491211787B511210B07B3D120F267B3E15
:100BA600120F747569227A15792D1210237A13792A
:100BB600857D041211687B1C120F0C2420120FAFC6
:100BC60024301210C67569227A1579311210737A9B
:100BD60013799BAF691211AB7D06120FE77D0612E2
:100BE60010BB2438FF7B20020E487569227A1579DE
:100BF600351210EF12205FAF6912E62AE569241854
:100C06007B1C121188E56924287B1F1211B3E56944
:100C160024387B201211B37A15793912104C7A13C5
:100C260079A37D021211687D02120FE77D02121070
:100C3600BB2438FF7B207D0212DB767A15793D12C4
:100C460010237A1379A7AF69121180E56924187BFE
:100C56001C1210F92428120FAF24381210C6756919
:100C6600227A1579411210737B0D7D06AF6912DB6E
:100C7600767B0E120F957B0F7D061211F07B1012FC
:100C86000F402440FF7B11020E487569227A1579C0
:100C9600451211467B60120FBA7B61E4FD12DB76CA
:100CA600E5692420FFE4FBFD12DB767B021210418E
:100CB6007A1579491210DA7B6A1211787B6B120F5A
:100CC6004D7B6C1210887B6D12118F7A15794D123F
:100CD60010917B17120FFE7B187D0412DB767B19B1
:100CE600120F3324307B211210F97B2212119A7ACB
:100CF6001579511211127B297D06AF6912DB767BBD
:100D060016120F957B76120FC77B777D0612106A37
:100D16002440FF7B4A020E4875691E7A15795512E2
:100D260011467B031211C27B0412107D7B03120F46
:100D3600A27B3C1211097B1F1210187B2012105F38
:100D46007A1579591210DA7B471211CA7B481210AC
:100D5600B07B49120F262430FF7B4A7D0212DB76D8
:100D6600E5697D0212102D7B0212111C7A15795D40
:100D76001210917B2F1211BA7B5912100B7B037D37
:100D8600041211F07B3C120F5A24401211D2245047
:100D9600FF7B027D0412DB767A1579611211127BD4
:100DA600091211397B8E7D0612DB76E5697D061206
:100DB60011252430FF7B02020E487569227A1579C7
:100DC600651220F112E62A7B491211C27B4A1210E3
:100DD6007D7B7312109B7B011210417A1579691283
:100DE60011F77B3F1211CA7B0C120F4D7B727D02ED
:100DF6001211027B1812118F7569227A15796D7F8F
:100E0600081211807B377D04AF6912DB767B5612A0
:100E1600100B7D0412112524301210567569227AA2
:100E26001579717F081211AB7B131211397B307D56
:100E36000612DB76E5697B8F7D061210382430FFBB
:100E46007B907D06803E7569227A1579751220F1B0
:100E560012E62A7B13E4FD1211DD7B30E4FD12DB82
:100E6600767B0612109BE5692430FF7B90E4FD1229
:100E7600DB767A1579791211F77B337D021211DD53
:100E86007B347D0212DB76E55764026005121F5A39
:100E9600700C7B7FE4FDFF12E4DB7B208010121FC9
:100EA6005A640170107B20FDFF12E4DB7B7F7D021C
:100EB6001211E8800C121F5A6402700C1211577B33
:100EC6007F7D041211E88015121F5A6403701512F3
:100ED60011577B207D04E4FF12E4DB7B7F7D06E473
:040EE600FF12E4DB38
:100EEA00227BFF7D027F0812E62A7B077D02AF691B
:100EFA0012DB76E5692410FF7B087D0212DB76E5BA
:100F0A006922E5692410FF7D0412DB76E56922E592
:100F1A00692410FF7D0612DB76E56922E569242043
:100F2A00FF7D0212DB76E56922E5692420FF7D0454
:100F3A0012DB76E56922E5692430FF7D0612DB764D
:100F4A00E56922E5692410FF7D0212DB76E5692254
:100F5A00E5692430FF7D0412DB76E56922E5692420
:100F6A0010FFE4FD12DB76E569222430FF7D0212D0
:100F7A00DB76E5692440FFE4FB7D0212DB76E56956
:100F8A002450FF7B027D0212DB7622E5692410FFE2
:100F9A007D0612DB76E56922E5692420FFE4FD126D
:100FAA00DB76E56922FF7B1F7D0412DB76E5692289
:100FBA00E4FDAF6912DB76E5692410FF222420FFE5
:100FCA007D0612DB76E569227BFF7D047F0812E647
:100FDA002A22E5692430FFE4FD12DB7622E5692442
:100FEA0018FF7B1C12DB76E569227BFF7D067F08F2
:100FFA0012E62A227D04AF6912DB76E5692410FF26
:10100A0022E5692410FF7D0412DB76E56922E56991
:10101A002440FFE4FD12DB76227BFF7D047F081269
:10102A00E62A222440FFE4FB12DB76E5692224202B
:10103A00FF12DB76E56922E5692430FFE4FD12DB65
:10104A0076227BFF7D027F0812E62A22FF7B027D41
:10105A000412DB7622E5692450FFE4FD12DB7622D6
:10106A002430FF12DB76E569227BFF7D067F0812BA
:10107A00E62A22E5692410FFE4FD12DB7622242009
:10108A00FF7D0212DB76227BFF7D047F0812E62AAF
:10109A0022E5692420FFE4FD12DB76227BFFE4FDD2
:1010AA007F0812E62A22E5692410FF7D0212DB7608
:1010BA00222428FF7B1F12DB76E56922FF7B207D35
:1010CA000412DB7622FFE4FB7D0612DB76E5692259
:1010DA007BFF7D027F0812E62A22E5692440FFE4AD
:1010EA00FD12DB76227BFFE4FD7F0812E62A22FF4F
:1010FA007D0412DB76E569222420FF12DB762224A6
:10110A0030FFE4FD12DB76227BFF7D067F0812E6C4
:10111A002A222450FF7D0212DB76222420FFE4FBE0
:10112A0012DB76E569222420FFE4FD12DB76227DBC
:10113A0006AF6912DB76E5692410FF227BFFE4FD26
:10114A007F0812E62A22FF7B0B12DB76227B20FD28
:10115A00FF12E4DB7B207D02E4FF12E4DB227BFF4B
:10116A00AF6912E62A22E4FDAF6912DB76227D021C
:10117A00AF6912DB76227BFF7D0412E62A22FFE4A6
:10118A00FD12DB7622E5692430FF7D0212DB76222E
:10119A002440FF7D0412DB76227D06AF6912DB76DE
:1011AA00227BFF7D0612E62A22FFE4FD12DB76226D
:1011BA007D04AF6912DB7622E4FDAF6912DB762289
:1011CA007D02AF6912DB7622FFE4FB7D0412DB7637
:1011DA00E56922AF6912DB76E5692410FF22E4FF94
:1011EA0012E4DB7B20222420FF12DB76227BFF7DA8
:0711FA00027F0812E62A2221
:1047DA00E5657003024925E4F56512E8A7E568B4C2
:1047EA00080040030249259047F8F8282873024830
:1047FA001002482E02484A0248810248B60248D1AD
:10480A000248EE0249137A15797D1249AA7A157976
:10481A008B12497C7A1579981249E37BFF7A1579CC
:10482A00A502490F7A1579B41249947A1579C312F7
:10483A0049EB7A1579D21249887A1579E102490F3A
:10484A007A1579ED1249AA7A1579FD12497C7A16F8
:10485A00790D7D047F0812E62A7F301249DB7BFF3F
:10486A007A1679197D067F0812E62A7B1C7D067F57
:10487A003812DB760249257A1679261249FB7B1C07
:10488A00E4FD7F3812DB767A1679331249A07B1C55
:10489A007D027F3812DB767A1679401249B47F3866
:1048AA001249DB7BFF7A16794D02490F7A16795E37
:1048BA001249947A16796E1249EB7A167979124965
:1048CA00887A167988803E7A1679981249FB7A1680
:1048DA0079A61249A07A1679B61249B47BFF7A16DC
:1048EA0079C680217A1679D31249CF7A1679E37D6F
:1048FA00027F0812E62A7BFF7A1679F31249E37BD4
:10490A00FF7A1779027D06800D7A1779121249CF3C
:10491A007A1779227D027F0812E62A121F5A700B33
:10492A007B7FFDFF12E4DB7B208010121F5A64019B
:10493A0070107B20FDFF12E4DB7B7F7D021249F3BE
:10494A00800C121F5A6402700C1249BE7B7F7D04D0
:10495A001249F38015121F5A640370151249BE7B5F
:10496A00207D04E4FF12E4DB7B7F7D06E4FF12E492
:10497A00DB227BFF7D027F0812E62A7BFF227BFF78
:10498A007D047F0812E62A7BFF227BFFE4FD7F0875
:10499A0012E62A7BFF227BFF7D027F0812E62A228B
:1049AA007BFFE4FD7F0812E62A227BFF7D047F0855
:1049BA0012E62A227B20FDFF12E4DB7B207D02E443
:1049CA00FF12E4DB227BFFE4FD7F0812E62A7BFF6D
:1049DA00227B1C7D0412DB76227D047F0812E62AE4
:1049EA00227D027F0812E62A22E4FF12E4DB7B2002
:0B49FA00227BFFE4FD7F0812E62A226A
:10E8C400E55D600612E8A7E4F55D90003CE0FF60BA
:0BE8D40003B40203020A161247DA2206
:10C38400E55D600612E8A7E4F55D90003CE0600717
:10C394006402600302C43A7569087B07E4FDAF696F
:10C3A40012DB76E56924107B0812C46A24207B35ED
:10C3B40012C46A24307B3612C47324407B0912C42D
:10C3C400732450FF7B0BE4FD12DB76E5692460FFE8
:10C3D4007B37E4FD12DB76756924AE34AF35121D6C
:10C3E400DE12C47C2410FF7B1D7D0312DB76E5691D
:10C3F4002420FF7B1E7D0312DB767569087B127D8A
:10C4040006AF6912DB76E569121E9912DB76E569DF
:10C41400121E0212E62AE569121EA112DB76E569F4
:10C42400121EA912DB76E569121EB112DB76E569EC
:10C43400121EB902DB76E4F5697BFF7A17792AFDCF
:10C44400AF6912E62A75691CAE34AF35121DDE12CF
