:10913200EF44C8F5BC00000000E5BC30E4FB53BCC2
:10914200EFAFBDEF75F004A4FFAEF0E5BE5403FD32
:03915200EF4DFFDF
:0191550022F7
:0D924E00E4F5C7F5C5F5C675C380F5C4226B
:10919D0075C78175C501EFF5C48EC375C65A75C601
:0991AD00A500AFC27E0012924E33
:0191B6002296
:1091E90075C78175C502EFF5C48EC38DC275C65AA0
:0791F90075C6A50002924EAD
:1092170075C78175C503EFF5C48EC375C65A75C684
:05922700A50002924EBB
:107AE800FFFFFFFFFAB7EF27E428D9B0CFB9C63AAE
:107AF800BD2DB48EAC58A4869D1495FF8F4388DCA9
:107B080082C87D04778B725B6D7168CA6461603569
:107B18005C42588454F8519C4E6B4B634880483201
:107B280046E544E042603F983CAF39C336E7342A23
:107B380031922F242CE22ACA28DA2710256823E05C
:107B48002273211E1FE01EB51D9B1C8F1B901A9DC2
:107B580019B518D517FE172E166615A514E914358C
:107B6800138612DD1239119B110310700FE10F57A4
:107B78000ED20E500DD20D570CDE0C670BF20B7D9A
:107B88000B090AD80A9E0A5C0A1609CC098009342E
:107B980008E8089F0857081207D007920757071FD9
:107BA80006EA06B80689065C0632060A05E405BF39
:0C7BB800059B057905570536051504F4FA
:10857200013300011800013F01014314021000FA07
:108582000224000002310BB8024100000214000074
:10859200024F0000022B00C8021200C8010F0002A5
:1085A2002D00000219006401470002290000024C5C
:1085B20003E80122004100150A41001A0042000DA1
:1085C200000042000B0000020A0064010E0141009B
:0A85D200000041000100410002001A
:107EF20075C13F128F9B12000E756D01753C0175A5
:107F02003DF4127C961290BB75C13F1283A4D3E557
:107F1200279410E52694274008127C96E4F526F56E
:107F220027D3E54994D0E54894074008127D66E4DA
:107F3200F548F549D390001CE0940E90001BE094A4
:107F4200014007E4F54CF54D8003121086E56B45C0
:107F52006A700DE537700375370485196A851A6BE7
:107F6200E53764017031E5214520702B900018E05F
:107F7200F53CA3E0F53D853A20853B21E4F53385C8
:107F82001041851142F51CF51DF50FE50F60051234
:107F9200923D800312922CE53245316003027F0A42
:087FA200AF37122311027F0A20
:108ADB00A281E433B54A12E5376402600CE53764D2
:108AEB00036006E53764017048E5237010900018A9
:108AFB00E0F53CA3E0F53D851441851542E537B41F
:108B0B00011DE5237019851041851142853A208599
:108B1B003B21900018E0F53CA3E0F53DE4F53385EF
:108B2B003E23A281E433F54AE4F533F51CF51DF53C
:0C8B3B000FE50F600302923D12922C2205
:044DE3008C5B8D5CFC
:104DE700E4F55FF560E55C24FFFFE55B34FFAD07A5
:104DF700FCE4F563F564E56025E0FFE55F338F824A
:104E0700F583121A64FFC3E55E9FE55D95F04005E3
:104E1700AE5FAF6022ED25E0FFEC338F82F58312A2
:104E27001A64FFD3E55E9FE55D95F05005AF05AECB
:104E37000422C3E5609DE55F9C4003024ED3E56015
:104E47002DFFE55F3CC313F561EF13F56225E0FF26
:104E5700E561338F82F583121A64FFAEF0655E70E9
:104E670003E55D6E6066C3E55E9FE55D9E5021E5E7
:104E7700622401FFE43561FEEF25E0FFEE338F8208
:104E8700F583121A64FFD3E55E9FE55D95F0503C0C
:104E9700E56225E0FFE561338F82F583121A64FF2F
:104EA700D3E55E9FE55D95F04006AC61AD62800697
:104EB70085615F8562600564E564AE6370020563C2
:104EC70014D3955CEE955B5003024E39AE61AF6229
:014ED70022B8
:107C9600E4F556F557755432755503F54CF54DC256
:107CA60090F582F583AF82AE83E4FCFD7BE87AFD36
:107CB600F9F8D3121AAA4003A380EAE4F553E55370
:107CC600C395545013AF55129132EF2557F557EE21
:107CD6003556F556055380E6AE56AF57AD547C0083
:107CE6001219D98E568F57AC56AD57E41218E07B51
:107CF600357A5E79FA783E1216BCC004C005C00615
:107D0600C007AC51AD52E41218E0A804A905AA06B2
:107D1600AB07D007D006D005D0041217C5E4FBFA8E
:107D2600797A78441216BC1219198E568F577C0030
:107D36007D0A1219D9C3ED9405EC9400AE56AF57DF
:107D46007C007D0A400E1219D9EF2401FFE43E9013
:0F7D5600001B80071219D990001BEEF0A3EFF06D
:017D650022FB
:107D6600755432755507E4F556F557F553E553C383
:107D760095545013AF55129132EF2557F557EE35FE
:107D860056F556055380E6AE56AF57AD547C0012F5
:107D960019D98E568F57D3E55794C2E5569401509C
:107DA6000BC3E557940AE55694005005E4F53F8069
:107DB60003753F01E53F6064AC56AD57E41218E029
:107DC600E4FBFA79A0783B1216BCAB07AA06A90514
:107DD600A804E4FFFE7D207C401217C5E4FBFA7977
:107DE6008078BF1215CBA804A905AA06AB077F00A9
:107DF6007E607DEA7C461217C51219197BFF7A7AD6
:107E060079E88E5D8F5E7D6E7C00124DE3EF24EC8B
:107E1600FFEE34FF900016F0A3EFF022900016E478
:057E2600F0A3E543F0AC
:017E2B002234
:10000E007F007E0212919D8F1BE51BC3940140075A
:10001E00E51BD394034003751B017F347E001291C0
:10002E009D90001AEFF0D394014002E4F07F387EE9
:10003E000012919D900018EEF0A3EFF0E0F8E4F0BE
:10004E00E8900018F07F397E0012919D900018E024
:10005E004EFEA3E04FFF900018EEF0A3EFF0D39406
:10006E00F4EE9401400A9000187401F0A374F4F0B9
:10007E007F367E0012919D90003FEFF0BF010C90F5
:10008E00001D744EF0A37420F0803090003FE0FF0E
:10009E00B40202801CEFB4030C90001D74E6F0A3B2
:1000AE007478F08016EFD39403401090003F7402E2
:1000BE00F090001D749CF0A37440F07F247E00121B
:1000CE00919D8E2F8F30E530753000F52F7F257E78
:1000DE000012919DEF4230EE422FD3E53094BCE5F5
:1000EE002F94024006752F0175309A7F2C7E0012D8
:1000FE00919D8F437543007F2D7E0012919DEF429F
:10010E0043E543D3944640067541007542147F2E55
:10011E007E0012919D8E108F11E511751100F51054
:10012E007F2F7E0012919DEF4211EE4210D3E5110A
:10013E0094F4E510940140067510007511FA7F30A5
:10014E007E0012919D8E128F13E513751300F5121A
:10015E007F317E0012919DEF4213EE4212D3E513D2
:10016E0094F4E5129401400675120075132874027A
:10017E00FFFE12919D8E418F42E542754200F54180
:10018E007F037E0212919DEF4242EE4241D3E54241
:10019E009530E541952F40067541007542C8854161
:1001AE004F8542507F047E0012919D8E3A8F3BE523
:1001BE003B753B00F53A7F057E0012919DEF423B69
:1001CE00EE423AD3E53B94E0E53A94014006753AA7
:1001DE0000753B1E853A20853B217F067E001291DD
:1001EE009D8F3E753E007F077E0012919DEF423E31
:1001FE00E53ED3943C4003753E03853E237F127E3D
:10020E000012919D900013EEF0A3EFF0E0F8E4F0F1
:10021E00E8900013F07F137E0012919D900013E082
:10022E004EFEA3E04FFF900013EEF0A3EFF0C39449
:10023E0001EE9400400CD3E094E8900013E0940398
:10024E004009900013E4F0A37496F07F147E001220
:10025E00919D8F477547007F157E0012919DEF424D
:10026E0047E547D394014003E4F5477F167E00121D
:10027E00919D8E388F39E539753900F5387F177EA7
:10028E000012919DEF4239EE4238D3E539940AE5DA
:10029E0038940040067538007539017F207E0012B3
:1002AE00919D8F6F756F007F217E0012919DEF42A1
:1002BE006F7F227E0012919D8F747574007F237E56
:1002CE000012919DEF42747F187E0012919D8E5107
:1002DE008F52E552755200F5517F197E0012919D95
:1002EE00EF4252EE4251D3E55294E7E5519403406A
:1002FE00067551007552897F2A7E0012919D9000DD
:10030E0015EFF0E4F07F2BFE12919D900015E04F5B
:10031E00F0D3940A40037402F07F417E0012919D47
:10032E00900003EEF0A3EFF0E0F8E4F0E8900003A5
:10033E00F07F427E0012919D900003E04EF0A3E00C
:10034E004FF07F437E0012919D90001FEEF0A3EFC1
:10035E00F0E0F8E4F0E890001FF07F447E00129188
:10036E009D90001FE04EF0A3E04FF07F457E0012FF
:10037E00919D900023EEF0A3EFF0E0F8E4F0E8900A
:10038E000023F07F467E0012919D900023E04EF0F8
:10039E00A3E04FF07F477E0012919D900029EEF072
:1003AE00A3EFF0E0F8E4F0E8900029F07F487E003B
:1003BE0012919D900029E04EF0A3E04FF07F497E10
:1003CE000012919D90002FEEF0A3EFF0E0F8E4F014
:1003DE00E890002FF07F4A7E0012919D90002FE052
:1003EE004EF0A3E04FF07F4B7E0012919D900005E2
:1003FE00EEF0A3EFF0E0F8E4F0E8900005F07F4CAB
:10040E007E0012919D900005E04EF0A3E04FF07F2C
:10041E004D7E0012919D900021EEF0A3EFF0E0F8DA
:10042E00E4F0E8900021F07F4E7E0012919D900046
:10043E0021E04EF0A3E04FF07F4F7E0012919D9091
:10044E000027EEF0A3EFF0E0F8E4F0E8900027F0DC
:10045E007F507E0012919D900027E04EF0A3E04F5A
:10046E00F07F527E0012919D90002DEEF0A3EFF0E2
:10047E00E0F8E4F0E890002DF07F537E0012919D9D
:10048E0090002DE04EF0A3E04FF07F547E001291CD
:10049E009D900033EEF0A3EFF0E0F8E4F0E890006A
:1004AE0033F07F557E0012919D900033E04EF0A305
:1004BE00E04FF07F567E0012919D900007EEF0A364
:1004CE00EFF0E0F8E4F0E8900007F07F577E0012BE
:1004DE00919D900007E04EF0A3E04FF07F587E0014
:1004EE0012919D900025EEF0A3EFF0E0F8E4F0E815
:1004FE00900025F07F597E0012919D900025E04ED0
:10050E00F0A3E04FF07F5A7E0012919D90002BEEEB
:10051E00F0A3EFF0E0F8E4F0E890002BF07F5B7EC4
:10052E000012919D90002BE04EF0A3E04FF07F5C07
:10053E007E0012919D900031EEF0A3EFF0E0F8E412
:10054E00F0E8900031F07F5D7E0012919D900031B9
:10055E00E04EF0A3E04FF07F5E7E0012919D900082
:10056E0037EEF0A3EFF0E0F8E4F0E8900037F07F1C
:10057E005F7E0012919D900037E04EF0A3E04FF0A9
:10058E0090001FE0FEA3E0FFC3900004E09F9000E8
:10059E0003E09E502D900023E0FCA3E0FDC3EF9DF1
:1005AE00EE9C501E900029E0FEA3E0FFC3ED9FECF1
:1005BE009E500F90002FE0FCA3E0FDC3EF9DEE9C3C
:1005CE00402F900003E4F0A37467F090001FE4F056
:1005DE00A374ADF0900023E4F0A374F5F09000291D
:1005EE007401F0A37449F090002F7401F0A374B05D
:1005FE00F0900021E0FEA3E0FFC3900006E09F9084
:10060E000005E09E502D900027E0FCA3E0FDC3EF17
:10061E009DEE9C501E90002DE0FEA3E0FFC3ED9FCB
:10062E00EC9E500F900033E0FCA3E0FDC3EF9DEE77
:10063E009C402F900005E4F0A37467F0900021E435
:10064E00F0A374ADF0900027E4F0A374F5F09000E1
:10065E002D7401F0A37449F09000337401F0A3746B
:10066E00B0F0900025E0FEA3E0FFC3900008E09FED
:10067E00900007E09E502D90002BE0FCA3E0FDC300
:10068E00EF9DEE9C501E900031E0FEA3E0FFC3ED07
:10069E009FEC9E500F900037E0FCA3E0FDC3EF9D52
:1006AE00EE9C402F900007E4F0A37467F0900025B5
:1006BE00E4F0A374ADF090002BE4F0A374F5F09089
:1006CE0000317401F0A37449F09000377401F0A367
:1006DE0074B0F07F107E0012919DEF645A4E60034D
:1006EE0002083EE51BB40142900003E0FFA3E09038
:1006FE000009CFF0A3EFF090001FE0FFA3E0900001
:10070E0035CFF0A3EFF0900023E0FFA3E090003987
:10071E00CFF0A3EFF0900029E0FFA3E090003BCFD5
:10072E00F0A3EFF090002F0207C0E51BB40241903A
:10073E000005E0FFA3E0900009CFF0A3EFF09000DA
:10074E0021E0FFA3E0900035CFF0A3EFF09000275B
:10075E00E0FFA3E0900039CFF0A3EFF090002DE082
:10076E00FFA3E090003BCFF0A3EFF0900033804268
:10077E00E51BB40349900007E0FFA3E0A3CFF0A36D
:10078E00EFF0900025E0FFA3E0900035CFF0A3EF4F
:10079E00F090002BE0FFA3E0900039CFF0A3EFF034
:1007AE00900031E0FFA3E090003BCFF0A3EFF0907C
:1007BE000037E0FFA3E090003DCFF0A3EFF07F18ED
:1007CE007E0012919D8E518F52E552755200F55159
:1007DE007F197E0012919DEF4252EE4251D3E552A7
:1007EE0094E7E551940340067551007552897F32A6
:1007FE007E0012919D90000FEEF0A3EFF0E0F8E472
:10080E00F0E890000FF07F337E0012919D90000F64
:10081E00E04EFEA3E04FFF90000FEEF0A3EFF0D3FB
:10082E00942CEE9401500302091590000F02090F4B
:10083E00900007E4F0A37467F0900005E4F0A37451
:10084E0067F0900003E4F0A37467F0900009E4F001
:10085E00A37467F0900025E4F0A374ADF09000212E
:10086E00E4F0A374ADF090001FE4F0A374ADF0902B
:10087E000035E4F0A374ADF090002BE4F0A374F512
:10088E00F0900027E4F0A374F5F0900023E4F0A3B9
:10089E0074F5F0900039E4F0A374F5F09000317423
:1008AE0001F0A37449F090002D7401F0A37449F087
:1008BE009000297401F0A37449F090003B7401F08C
:1008CE00A37449F09000377401F0A374B0F0900057
:1008DE00337401F0A374B0F090002F7401F0A37480
:1008EE00B0F090003D7401F0A374B0F07551007536
:1008FE005289D3900010E0942C90000FE0940140A8
:08090E0006E4F0A37414F022CA
:10917A007F007E02129217AD1B7F007E021291E9D8
:10918A00AD427F037E021291E9E541FD7402FFFEC2
:03919A000291E956
:101F5800E4FFFE129217900018A3E0FD7F397E007F
:101F68001291E9900018E0FD7F387E001291E9ADEA
:101F7800437F2D7E001291E97D007F2C7E00129117
:101F8800E9AD3B7F057E001291E9E53AFD7F047ECD
:101F9800001291E9AD3E7F077E001291E97D007F36
:101FA800067E001291E97D5A7F107E001291E9E5C4
:101FB8001BB40149900009E0FFA3E0900003CFF0B3
:101FC800A3EFF0900035E0FFA3E090001FCFF0A34F
:101FD800EFF0900039E0FFA3E0900023CFF0A3EFEB
:101FE800F090003BE0FFA3E0900029CFF0A3EFF0D2
:101FF80090003DE0FFA3E090002F02209DE51BB478
:102008000248900009E0FFA3E0900005CFF0A3EF9D
:10201800F0900035E0FFA3E0900021CFF0A3EFF0AF
:10202800900039E0FFA3E0900027CFF0A3EFF090F5
:10203800003BE0FFA3E090002DCFF0A3EFF090006D
:102048003DE0FFA3E0900033804BE51BB4034B90C9
:102058000009E0FFA3E0900007CFF0A3EFF09000A5
:1020680035E0FFA3E0900025CFF0A3EFF090003912
:10207800E0FFA3E090002BCFF0A3EFF090003BE04F
:10208800FFA3E0900031CFF0A3EFF090003DE0FF18
:10209800A3E0900037CFF0A3EFF0900003A3E0FD9A
:1020A8007F427E001291E9900003E0FD7F417E00AF
:1020B8001291E990001FA3E0FD7F447E001291E990
:1020C80090001FE0FD7F437E001291E9900023A35A
:1020D800E0FD7F467E001291E9900023E0FD7F45F8
:1020E8007E001291E9900029A3E0FD7F487E00124E
:1020F80091E9900029E0FD7F477E001291E9900068
:102108002FA3E0FD7F4A7E001291E990002FE0FDA9
:102118007F497E001291E9900005A3E0FD7F4C7E87
:10212800001291E9900005E0FD7F4B7E001291E9D5
:10213800900021A3E0FD7F4E7E001291E9900021DE
:10214800E0FD7F4D7E001291E9900027A3E0FD7F1E
:10215800507E001291E9900027E0FD7F4F7E00122B
:1021680091E990002DA3E0FD7F537E001291E99044
:10217800002DE0FD7F527E001291E9900033A3E02C
:10218800FD7F557E001291E9900033E0FD7F547E7B
:10219800001291E9900007A3E0FD7F577E0012919D
:1021A800E9900007E0FD7F567E001291E990002536
:1021B800A3E0FD7F597E001291E9900025E0FD7FA4
:1021C800587E001291E990002BA3E0FD7F5B7E0012
:1021D8001291E990002BE0FD7F5A7E001291E99060
:1021E8000031A3E0FD7F5D7E001291E9900031E0AF
:1021F800FD7F5C7E001291E9900037A3E0FD7F5FD0
:102208007E001291E9900037E0FD7F5E7E0012911A
:10221800E9900013A3E0FD7F137E001291E990007E
:1022280013E0FD7F127E001291E9AD477F157E0015
:102238001291E97D007F147E001291E9AD397F1774
:102248007E001291E9E538FD7F167E001291E9AD16
:10225800527F197E001291E9E551FD7F187E001228
:1022680091E9AD6F7F217E001291E97D007F207E8C
:10227800001291E9AD747F237E001291E97D007F01
:10228800227E001291E9AD307F257E001291E9E5AA
:102298002FFD7F247E001291E9900015E0FD7F2B31
:1022A8007E001291E9900015E07D007F2A7E0012E1
:1022B80091E9AD117F2F7E001291E9E510FD7F2E87
:1022C8007E001291E9AD137F317E001291E9E5128B
:1022D800FD7F307E001291E990000FA3E0FD7F336F
:1022E8007E001291E990000FE0FD7F327E0012918E
:1022F800E990001AE0FD7F347E001291E990003FDA
:09230800E0FD7F367E000291E940
:108F9B00E4F5957596FF4391285392D7439D28533B
:108FAB0091FC439203D281C290C291438E8053892C
:108FBB00F0758A40758CA2C28DD28CD2A9D2AFD259
:0F8FCB00B0D2B2D2B1C288D2A812805D0290E6B5
:03000B00022B06BF
:102B0600C0E0C0F0C083C082C0D075D000C000C095
:0D2B160001C002C003C004C005C006C00716
:102B23000509E50970020508AE08FFE4FCFD7B60BA
:102B33007AEAF9F8D3121AAA506DE52394004005F6
:102B4300D5230C8000900018E0F53CA3E0F53DD3BD
:102B5300E5219400E52094004010E5211521700241
:102B63001520E5214520700C8000900018E0F53C0D
:102B7300A3E0F53D750800750900E5236006E5212E
:102B83004520701B051DE51D7002051CD39539E515
:102B93001C95384003750F0190000DE4F0A3F00578
:102BA30025E525700205240527E52770020526057E
:102BB30049E54970020548E5746010E523600CE5BA
:102BC3002145206006853A20853B21E53245316069
:102BD30008E532153270021531E56845676008E58E
:102BE30068156870021567D3E56B9400E56A940075
:102BF3004008E56B156B7002156AD3E52E9400E56A
:102C03002D94004008E52E152E7002152DAE1EAF33
:102C13001FE4FCFD7B607AEAF9F8D3121AAA400894
:102C2300051FE51F7002051EC3E51794E8E516941A
:102C33000350080517E51770020516D3E53D940008
:102C4300E53C94004010E56F600CE53D153D7002D6
:102C5300153CC2838002D2830545E54570020544D5
:102C6300E52A45296008E52A152A700215299000EE
:102C73003FE0602CE56DB4012790000DE0FEA3E07A
:102C8300FFE4FCFD7B607AEAF9F8D3121AAA401735
:102C930090000EE004F0700F90000DE004F0800748
:102CA30090000DE4F0A3F0E523702FE521452060AB
:102CB30029E54265137004E54165126006854114F8
:102CC300854215851241851342E533700A90001839
:102CD300E0F53CA3E0F53D753301E5214520701592
:102CE300F54CF54DE533700A900018E0F53CA3E090
:102CF300F53D753301D3E50B954DE50A954C400C35
:102D0300E50B150B7002150AC290800AE50B150B33
:102D13007002150AD290E50B450A7006750A037511
:022D23000BE8BB
:102D2500D007D006D005D004D003D002D001D00002
:0B2D3500D0D0D082D083D0F0D0E032AC
:0300030002881D53
:04881D00C0E0C0D027
:1088210020B009751600751700753700D3E5179448
:1088310050E5169400405BA2B2E433F50CA2B1E41A
:1088410033F50DB50C08E50E6006150E8002050E18
:10885100D3E5179464E51694004037E50ED3940AE6
:10886100400EE547600575370380187537028013A0
:10887100E50EC3940A5012E547600575370280037F
:10888100753703753C00753D14750E0A7516007534
:028891001700CE
:05889300D0D0D0E0325E
:1083A40020B00C900000E07006F51EF51F04F0D319
:1083B400E51F94D0E51E94074017900000E060117B
:1083C40020B00E900002E07008753C01753D2C044D
:1083D400F0D3E51F9410E51E94274015900000E0AB
:1083E400600F20B00CA3E07008753C02753D580482
:1083F400F030B045900000E0603FE4F0D3E51F9416
:1084040010E51E9427400575370C8024D3E51F948E
:10841400D0E51E9407400575370B8014D3E51F94EF
:1084240064E51E94004009753701753C00753D14E0
:09843400E4900002F0900001F058
:01843D00221C
:10108600C3E52C9542E52B9541501CC3E542952CB2
:10109600FFE541952BFED3EF941EEE9400400875B4
:1010A600550175569080067555007556C8D3E545A9
:1010B6009556E54495554007E4F54CF54DC290E547
:1010C600562414FFE43555FED3E5459FE5449E506E
:1010D600030215C3E4F535F536900049F0E4F553FF
:1010E600F554900048F07F05129132EF2554F554DF
:1010F600EE3553F553900048E004F0E0C3943240D7
:10110600E5AE53AF547C007D321219D98E538F54FD
:10111600E5542536F536E5533535F535900049E085
:1011260004F0E0C3940640B5AE35AF367C007D06CC
:101136001219D98E358F36D3E53694BCE53594022F
:1011460040057518018003E4F51890003BE0FEA306
:10115600E0FFD39536EE9535504EC390003EE09FA6
:10116600FD90003DE09EFCE41218E0E4FBFA79C82D
:1011760078421217C5900040121AC090003BE0FE5C
:10118600A3E0FFC3E5369FFDE5359EFCE41218E0BB
:10119600900040E0F8A3E0F9A3E0FAA3E0FB121701
:1011A600C5E4FBFA7996805C900039E0FEA3E0FF87
:1011B600D39536EE95355050C390003CE09FFD9098
:1011C600003BE09EFCE41218E0E4FBFA79C87842A2
:1011D6001217C5900040121AC0900039E0FEA3E035
:1011E600FFC3E5369FFDE5359EFCE41218E090004E
:1011F60040E0F8A3E0F9A3E0FAA3E0FB1217C5E488
:10120600FBFA79487843805E900035E0FEA3E0FF64
:10121600D39536EE95355053C390003AE09FFD9036
:101226000039E09EFCE41218E0E4FBFA79C8784243
:101236001217C5900040121AC0900035E0FEA3E0D8
:10124600FFC3E5369FFDE5359EFCE41218E09000ED
:1012560040E0F8A3E0F9A3E0FAA3E0FB1217C5E427
:10126600FBFA79C878421215CB8057900009E0FE48
:10127600A3E0FFD39536EE9535504FC3900036E088
:101286009FFD900035E09EFCE41218E0E4FBFA793D
:10129600C878421217C5900040121AC0900009E0A3
:1012A600FEA3E0FFC3E5369FFDE5359EFCE412187C
:1012B600E0900040E0F8A3E0F9A3E0FAA3E0FB1217
:1012C60017C5900044121AC0800A900044121ACC26
:1012D60000000000900044E0F8A3E0F9A3E0FAA3C0
:1012E600E0FBC000C001C002C003900015E0FF7E15
:1012F60000A3E0FCA3E0FD1219C77C007D0A121AC8
:101306002EAC06AD07EC1218E0D003D002D001D007
:10131600001215CB900044121AC0E4F544F545AC12
:1013260041AD421218E0900044E0F8A3E0F9A3E0D2
:10133600FAA3E0FB1218625027AC41AD42E4121842
:10134600E0900044E0F8A3E0F9A3E0FAA3E0FB1282
:1013560015C7E4FBFA7940784112186260025052D0
:10136600AC41AD42E41218E0900044E0F8A3E0F985
:10137600A3E0FAA3E0FB121862600250030214B065
:10138600AC41AD42E41218E0A804A905AA06AB07D1
:10139600900044E0FCA3E0FDA3E0FEA3E0FF1215ED
:1013A600C7E4FBFA79207841121862600250030202
:1013B60014B0900012E004F07006900011E004F002
:1013C600900044E0FCA3E0FDA3E0FEA3E0FF1219B9
:1013D60019EFB5420BEEB54107E4900011F0A3F00A
:1013E600E52145206004E5237007E4900011F0A391
:1013F600F0D3900012E09406900011E09400403F74
:10140600AC41AD42E41218E0900044E0F8A3E0F9E4
:10141600A3E0FAA3E0FB1218625024900014E02423
:101426000AF0900013E03400F0D3A3E09484900017
:1014360013E0940340617403F0A37484F08058D3DE
:10144600900012E09402900011E094004050AC41EC
:10145600AD42E41218E0900044E0F8A3E0F9A3E0FE
:10146600FAA3E0FB12186260354033900013E0FEE9
:10147600A3E0FFC3940AEE94004005E024F6800F33
:10148600C3EF9401EE9400400E900014E024FFF0A8
:10149600900013E034FFF0E4900011F0A3F0900008
:1014A60013E0F54CA3E0F54D802EE4900011F0A377
:1014B600F0AC41AD421218E0900044E0F8A3E0F928
:1014C600A3E0FAA3E0FB1218625008754C03754DB1
:1014D600E88005E4F54CF54DD3E5429428E54194C2
:1014E600005005E4F54CF54D90000FE0FEA3E0FF3B
:1014F600C390001CE09F90001BE09E5005E4F54C55
:10150600F54DE522640170030215AE900044E0FC3F
:10151600A3E0FDA3E0FEA3E0FF1219197C007D0AFB
:101526001219D9C3ED9405EC9400401E900044E0D6
:10153600FCA3E0FDA3E0FEA3E0FFE4FBFA79A078BC
:10154600401215CB900044121AC0E4FBFA792078B9
:1015560041900044E0FCA3E0FDA3E0FEA3E0FF12FF
:1015660017C51219197C007D0A1219C78E2B8F2CEC
:10157600E5422405FFE43541FEC3E52C9FE52B9E9D
:101586005019E54224FBFFE54134FFFED3E52C9FCD
:10159600E52B9E400675290B752AB8E52A45296074
:1015A6001C85412B85422C22900044E0FCA3E0FDE3
:0D15B600A3E0FEA3E0FF1219198E2B8F2C6D
:0115C3002205
:101AFD005365743A007875656A755F0056332E31FB
:101B0D0000337300536C6565702074696D652073C7
:101B1D006574006D696E7574650050726573732020
:101B2D00337320746F2065786974007875656A75F4
:101B3D00647A2E74616F62616F2E636F6D007875BC
:101B4D00656A755F7431320056206C6F776572204F
:101B5D006C696D6974004F46462074696D6520731C
:101B6D0065740035300041443D0035302000636F11
:101B7D007272656374696F6E0031303000323030CF
:101B8D000033303000343030003A002D00526F6F8A
:101B9D006D2074656D702073657400526F6F6D3AB2
:101BAD00005365742054656D703A00456E636F6423
:101BBD0065722053657400202020436C6F636B7732
:101BCD006973652020200020416E74692D636C6F50
:101BDD00636B77697365004C616E6775616765202E
:101BED0053657400456E676C69736800323073001D
:101BFD00343073003630730053637265656E7361F4
:101C0D00766572205365740044656C6179203230BD
:101C1D00730044656C6179203430730044656C61E8
:101C2D007920363073004F4646002B31002B3200A1
:101C3D002B33002B34002B35002B360043756520DC
:101C4D00736F756E6420766F6C756D6500536F756F
:101C5D006E6420002B3120002B3220002B3320000E
:101C6D002B3420002B3520002B36200049726F6E4F
:101C7D002073656C656374696F6E004E4F2E00495D
:101C8D00726F6E00536F756E64204F4E2F4F464628
:101C9D00004F4E200053687574646F776E206D6F22
:101CAD0064650041667465722074686520736C65A7
:101CBD0065700041667465722074686520626F6F8F
:101CCD00742000312E00322E00332E00342E0035BC
:101CDD002E00362E00372E00382E00392E003130D2
:101CED002E0031312E0031322E0031332E003134A1
:101CFD002E0031352E0031362E0031372E00313881
:101D0D002E0031392E0032302E0032312E0032327B
:101D1D002E0032332E0032342E00312E49726F6E6A
:101D2D002073656C65637400322E536C656570208D
:101D3D0074696D6500332E4F46462074696D6520BC
:101D4D0073657400342E4F4646206D6F64652073A5
:101D5D00657400352E4C4344204F46462074696D02
:101D6D006500362E526F6F6D2054656D7020736552
:101D7D007400372E536F756E64204F4E2F4F4646AD
:101D8D0000382E43756520736F756E6400392E35DE
:101D9D003020202043414C0031302E313030202076
:101DAD002043414C0031312E323030202020434130
:101DBD004C0031322E33303020202043414C003145
:101DCD00332E34303020202043414C0031342E4509
:101DDD006E636F646572205365740031352E5375D3
:101DED0070706C792043414C0031362E4D6178690D
:101DFD006D756D2054454D500031372E54454D5065
:101E0D0020436F6566662E2E0031382E437572693C
:101E1D006E672054454D500031392E536C656570F9
:101E2D002054454D500032302E6D696E6920766F0D
:101E3D006C746167650032312E4C616E6775616738
:101E4D0065205365740032322E53637265656E736F
:101E5D00617665720032332E56657273696F6E004E
:101E6D0032342E45786974004C4344204F46462049
:101E7D0074696D652073657400537570706C79208D
:101E8D0043414C2000312E3000302E0054454D5032
:101E9D0020436F656666696369656E74004D617890
:101EAD00696D756D2054454D5000437572696E67AF
:101EBD002054454D5000536C6565702054454D5070
:101ECD00002100536C656570696E6721005669626B
:101EDD00726174696F6E2077616B65006861732044
:101EED007368757420646F776E210050726573731B
:101EFD002077616B6520757000566F6C7461676536
:101F0D0020746F6F206C6F7721004F7220746F20DB
:101F1D006368616E676520746865006C6F776572C4
:101F2D00206C696D69742076616C750065206F6633
:101F3D002074686520766F6C74616765004E6F2044
:0B1F4D0069726F6E2100205365740064
:1085DC0002700000017201016D00016901016C0162
:1085EC00017300016E0142004A000042004C000081
:0785FC0001650041004E0083
:10315F0090004BE004F0700690004AE004F09000FD
:10316F001EE024F4FF90001DE03401FEC390000E1A
:10317F00E09F90000DE09E50031290E690004AE011
:10318F007004A3E06406702B1290E690004DE004EB
:10319F00F0700690004CE004F0D390004DE09419CD
:1031AF0090004CE094004004E4F0A3F0E490004A57
:1031BF00F0A3F090004CE0FEA3E0FF4E700302324C
:1031CF0082EF64014E700675540B0232E4EF640215
:1031DF004E7002805CEF64034E700675542302320A
:1031EF00C8EF64044E700875542FF5550232F5EF91
:1031FF0064054E700675542F0232C8EF64064E7088
:10320F000675542F0232D6EF64074E700675542F91
:10321F000232E4EF64084E700675542F0232F2EF5B
:10322F0064094E70067554230232E4EF640A4E703F
:10323F00067554170232D6EF640B4E700575540B9A
:10324F008077EF640C4E7007F554F5550232F5EFA9
:10325F00640D4E7004F5548060EF640E4E7004F5EB
:10326F00548064EF640F4E7004F5548068EF64105F
:10327F004E7004F554806CEF64114E700575541840
:10328F008061EF64124E70057554188048EF641317
:10329F004E7005755418802FEF64144E70057554D9
:1032AF00188016EF64154E7007755418F555803653
:1032BF00EF64164E70087554187555018028EF6429
:1032CF00174E7008755418755502801AEF64184E12
:1032DF007008755418755503800CEF64194E7006FD
:1032EF00755418755504755A03AB2CAA2BAD55AFF1
:1032FF0054128B47E5542430FF7B0BAD5512871EBC
:0C330F00E5542440FF7B0CAD5502871EE6
:10331B0090001DE0FEA3E0FFD390000EE09F900015
:10332B000DE09E400302315FE56C60061290E6E40F
:10333B00F56C90001AE07031FBFDFF128FDA7B0108
:10334B00E4FD7F10128FDA7B3AE4FD7F20128C7B39
:10335B00755903755A10AB42AA41E4FD7F281289B7
:10336B008D7B1CE4FD7F4480237BFF7A1A79FDE47F
:10337B00FDFF129018755903755A10AB42AA41E420
:10338B00FD7F2012898D7B1CE4FD7F3C128FDAE5DB
:10339B001BD394014012E51BFB7A00755901755A3A
:1033AB00107D037F7712898DAE4CAF4D7C007D0A6B
:1033BB001219D98F53EFFB7A00755903755A10E424
:1033CB00FD7F5D12898D7B25E4FD7F77128C7BE57C
:1033DB002E452D6009755A03AB42AA418007755AD9
:1033EB0003AB2CAA2B7D027F18128B477B0B7D0224
:1033FB007F4812871E7B0C7D027F5812871E900020
:10340B001BE0FEA3E0FF7C007D0A1219D9AA06ABD4
:10341B0007755902755A107D06E4FF12898D7B2EB4
:10342B007D067F10128C7B90001BE0FEA3E0FF7CDF
:10343B00007D0A1219D9AA04AB05755901755A10EA
:10344B007D067F1812898D7B567D067F20128C7B23
:10345B007B207D067F28128C7B900016E0FEA3E07C
:10346B00FFC3EE6480948040068F537B20800B90CB
:10347B000016A3E0F404F5537B2D7D067F2C128CF4
:10348B007BE553FB7A00755902755A107D067F3424
:10349B0012898D7B1C7D067F44128FDA3081047B71
:1034AB002E80027B207D067F5A128C7B755903750B
:0D34BB005A10AB25AA247D067F6412898D6E
:0134C80022E1
:1090BB00E56C60061290E6E4F56C12908E7BFF7AFD
:1090CB001B79027D067F181290187BFF7A1B79099A
:0B90DB007D067F48129018756C012282
:10496A00E56C60061290E6E4F56C90001AE06003CC
:10497A00024A487553107B07FDAF53128FDAE5538D
:10498A002410FF7B08E4FD128FDAE5532420FF7B15
:10499A0009E4FD128FDAE5532430FF7B0AE4FD12A5
:1049AA008FDAE5532440FFE4FBFD128FDAE5532446
:1049BA0050FF7B02E4FD128FDA755320E53EFB7A45
:1049CA0000755902755A107D03AF5312898DE5534C
:1049DA002418FF7B1D7D03128FDAE5532428FF7B01
:1049EA001E7D03128FDA7553087B127D06AF5312B0
:1049FA008FDAE5532410FF7B137D06128FDAE55315
:104A0A002420FF7BFF7A1B790E7D06129018E5534E
:104A1A002430FF7B317D06128FDAE5532440FF7B79
:104A2A00327D06128FDAE5532450FF7B337D06125E
:104A3A008FDAE5532460FF7B347D06028FDA7553E3
:104A4A00087BFF7A1B7911E4FDAF53129018755356
:104A5A001CE53EFB7A00755902755A107D03AF5367
:104A6A0012898DE5532418FF7BFF7A1B79207D0379
:104A7A00129018E4F5537BFF7A1B79277D06AF5312
:034A8A001290186F
:014A8D002206
:10860400E56C60061290E6E4F56C90001AE0705098
:1086140075531C7B6EFDAF53128FDAE5532410FFA4
:108624007B6FE4FD128FDAE5532420FF7B03E4FD26
:10863400128FDAE5532430FF7B70E4FD128FDA7574
:10864400532D7BFF7A1B79097D02AF531290187B5F
:10865400FF7A1B79387D04E4FF12901875530822C1
:1086640075531C7BFF7A1B794BE4FDAF53129018B2
:1086740075532D7BFF7A1B79097D02AF5312901835
:0D8684007BFF7A1B79387D04E4FF1290180B
:0186910022C6
:10366000E56C60061290E6E4F56C90001AE06003E9
:103670000237737553107B2FFDAF53128FDAE5536A
:103680002410FF7B59E4FD128FDAE5532420FF7BE1
:1036900003E4FD128FDAE5532430FF7B3CE4FD1296
:1036A0008FDAE5532440FFE4FBFD128FDAE5532463
:1036B00050FF7B02E4FD128FDA75532C90000FE06F
:1036C000FEA3E0FF7C007D0A1219D9AA06AB07759C
:1036D0005902755A107D03AF5312898DE55324109A
:1036E000FF7B2E7D03128C7BE5532418FFC00790CF
:1036F000000FE0FEA3E0FF7C007D0A1219D9AA04A6
:10370000AB05755901755A10D0077D0312898DE5F7
:10371000532420FF7B567D03128C7B7553087B124C
:103720007D06AF53128FDAE5532410FF7B137D061D
:10373000128FDAE5532420FF7BFF7A1B790E7D067A
:10374000129018E5532430FF7B317D06128FDAE5A5
:10375000532440FF7B327D06128FDAE5532450FF5D
:103760007B337D06128FDAE5532460FF7B347D06C0
:10377000028FDA75530C7BFF7A1B7955E4FDAF534A
:1037800012901875532C90000FE0FEA3E0FF7C0010
:103790007D0A1219D9AA06AB07755902755A107D10
:1037A00003AF5312898DE5532410FF7B2E7D031246
:1037B0008C7BE5532418FFC00790000FE0FEA3E0C8
:1037C000FF7C007D0A1219D9AA04AB057559017551
:1037D0005A10D0077D0312898DE5532420FF7B56B4
:1037E0007D03128C7BE4F5537BFF7A1B79277D06E2
:0537F000AF5312901818
:0137F50022B1
:104A8E00E56C60061290E6E4F56C90001AE06003A7
:104A9E00024B6B7553107B01FDAF53128FDAE5534A
:104AAE002410FF7B09E4FD128FDAE5532420FF7BEF
:104ABE000BE4FD128FDAE5532430FF7B0CE4FD127C
:104ACE008FDAE5532440FFE4FBFD128FDAE5532421
:104ADE0050FF7B02E4FD128FDA7553207559037572
:104AEE005A10AB3BAA3A7D03AF5312898DE553247E
:104AFE0018FF7B1D7D03128FDAE5532428FF7B1EE2
:104B0E007D03128FDA7553087B127D06AF53128F19
:104B1E00DAE5532410FF7B137D06128FDAE553245A
:104B2E0020FF7BFF7A1B790E7D06129018E5532429
:104B3E0030FF7B317D06128FDAE5532440FF7B3246
:104B4E007D06128FDAE5532450FF7B337D06128FDC
:104B5E00DAE5532460FF7B347D06028FDA7553103D
:104B6E007BFF7A1B7963E4FDAF53129018755318CF
:104B7E00755903755A10AB3BAA3A7D03AF53128990
:104B8E008DE5532420FF7BFF7A1B79207D03129045
:104B9E0018E4F5537BFF7A1B79277D06AF531290ED
:014BAE0018EE
:014BAF0022E3
:10414600E56C60061290E6E4F56C90001AE06003F8
:1041560002420C7553207BFF7A1B7970FDAF531218
:104166009018E5532410FF7B1CE4FD128FDAE5530B
:104176002420FF7B1FE4FD128FDAE5532430FF7BFA
:1041860020E4FD128FDA7553287BFF7A1B79737D45
:1041960003AF53129018E5532418FF900009E0FA74
:1041A600A3E0FB755903755A107D0312898D75536B
:1041B600087B127D06AF53128FDAE5532410FF7B7E
:1041C600137D06128FDAE5532420FF7BFF7A1B79D5
:1041D6000E7D06129018E5532430FF7B317D0612C2
:1041E6008FDAE5532440FF7B327D06128FDAE553E2
:1041F6002450FF7B337D06128FDAE5532460FF7B64
:10420600347D06028FDAE4F5537BFF7A1B7977FD5E
:10421600AF53129018E5532418FF7B1CE4FD128F50
:10422600DAE553242FFF7BFF7A1B797BE4FD12909E
:10423600187553287BFF7A1B79737D03AF53129051
:1042460018E5532418FF900009E0FAA3E0FB75591E
:1042560003755A107D0312898DE4F5537BFF7A1B93
:0942660079277D06AF5312901870
:01426F00222C
:10427000E56C60061290E6E4F56C90001AE06003CD
:1042800002433675531C7BFF7A1B7986FDAF5312B0
:104290009018E5532418FF7B1CE4FD128FDAE553D8
:1042A0002428FF7B1FE4FD128FDAE5532438FF7BBF
:1042B00020E4FD128FDA7553287BFF7A1B79737D1A
:1042C00003AF53129018E5532418FF900035E0FA1D
:1042D000A3E0FB755903755A107D0312898D755340
:1042E000087B127D06AF53128FDAE5532410FF7B53
:1042F000137D06128FDAE5532420FF7BFF7A1B79AA
:104300000E7D06129018E5532430FF7B317D061296
:104310008FDAE5532440FF7B327D06128FDAE553B6
:104320002450FF7B337D06128FDAE5532460FF7B38
:10433000347D06028FDAE4F5537BFF7A1B7986FD24
:10434000AF53129018E5532418FF7B1CE4FD128F25
:10435000DAE553242FFF7BFF7A1B797BE4FD129073
:10436000187553287BFF7A1B79737D03AF53129026
:1043700018E5532418FF900035E0FAA3E0FB7559C7
:1043800003755A107D0312898DE4F5537BFF7A1B68
:0943900079277D06AF5312901845
:014399002201
:10439A00E56C60061290E6E4F56C90001AE06003A2
:1043AA0002446075531C7BFF7A1B798AFDAF531256
:1043BA009018E5532418FF7B1CE4FD128FDAE553AD
:1043CA002428FF7B1FE4FD128FDAE5532438FF7B94
:1043DA0020E4FD128FDA7553287BFF7A1B79737DEF
:1043EA0003AF53129018E5532418FF900039E0FAEE
:1043FA00A3E0FB755903755A107D0312898D755315
:10440A00087B127D06AF53128FDAE5532410FF7B27
:10441A00137D06128FDAE5532420FF7BFF7A1B797E
:10442A000E7D06129018E5532430FF7B317D06126B
:10443A008FDAE5532440FF7B327D06128FDAE5538B
:10444A002450FF7B337D06128FDAE5532460FF7B0D
:10445A00347D06028FDAE4F5537BFF7A1B798AFDF5
:10446A00AF53129018E5532418FF7B1CE4FD128FFA
:10447A00DAE553242FFF7BFF7A1B797BE4FD129048
:10448A00187553287BFF7A1B79737D03AF531290FB
:10449A0018E5532418FF900039E0FAA3E0FB755998
:1044AA0003755A107D0312898DE4F5537BFF7A1B3D
:0944BA0079277D06AF531290181A
:0144C30022D6
:1044C400E56C60061290E6E4F56C90001AE0600377
:1044D40002458A75531C7BFF7A1B798EFDAF5312FC
:1044E4009018E5532418FF7B1CE4FD128FDAE55382
:1044F4002428FF7B1FE4FD128FDAE5532438FF7B69
:1045040020E4FD128FDA7553287BFF7A1B79737DC3
:1045140003AF53129018E5532418FF90003BE0FAC0
:10452400A3E0FB755903755A107D0312898D7553E9
:10453400087B127D06AF53128FDAE5532410FF7BFC
:10454400137D06128FDAE5532420FF7BFF7A1B7953
:104554000E7D06129018E5532430FF7B317D061240
:104564008FDAE5532440FF7B327D06128FDAE55360
:104574002450FF7B337D06128FDAE5532460FF7BE2
:10458400347D06028FDAE4F5537BFF7A1B798EFDC6
:10459400AF53129018E5532418FF7B1CE4FD128FCF
:1045A400DAE553242FFF7BFF7A1B797BE4FD12901D
:1045B400187553287BFF7A1B79737D03AF531290D0
:1045C40018E5532418FF90003BE0FAA3E0FB75596B
:1045D40003755A107D0312898DE4F5537BFF7A1B12
:0945E40079277D06AF53129018EF
:0145ED0022AB
:1045EE00E56C60061290E6E4F56C90001AE060034C
:1045FE000246B475531C7BFF7A1B7992FDAF5312A2
:10460E009018E5532418FF7B1CE4FD128FDAE55356
:10461E002428FF7B1FE4FD128FDAE5532438FF7B3D
:10462E0020E4FD128FDA7553287BFF7A1B79737D98
:10463E0003AF53129018E5532418FF90003DE0FA93
:10464E00A3E0FB755903755A107D0312898D7553BE
:10465E00087B127D06AF53128FDAE5532410FF7BD1
:10466E00137D06128FDAE5532420FF7BFF7A1B7928
:10467E000E7D06129018E5532430FF7B317D061215
:10468E008FDAE5532440FF7B327D06128FDAE55335
:10469E002450FF7B337D06128FDAE5532460FF7BB7
:1046AE00347D06028FDAE4F5537BFF7A1B7992FD97
:1046BE00AF53129018E5532418FF7B1CE4FD128FA4
:1046CE00DAE553242FFF7BFF7A1B797BE4FD1290F2
:1046DE00187553287BFF7A1B79737D03AF531290A5
:1046EE0018E5532418FF90003DE0FAA3E0FB75593E
:1046FE0003755A107D0312898DE4F5537BFF7A1BE7
:09470E0079277D06AF53129018C3
:01471700227F
:102D4000E56C60061290E6E4F56C90001AE0600312
:102D5000022EB67553107B53FDAF53128FDAE55335
:102D60002410FF7B54E4FD128FDAE5532420FF7B0F
:102D700049E4FD128FDAE5532430FF7B4AE4FD126B
:102D80008FDAE5532440FF7B51E4FD128FDAE553DF
:102D90002450FF7B52E4FD128FDA7553187B557D6A
:102DA00002AF53128FDAE5532410FF7B497D0212E4
:102DB0008FDAE5532420FF7BFF7A1B79967D021280
:102DC0009018900016E0FAA3E0FBC3EA64809480B8
:102DD000E55340102428FF755902755A107D0212E0
:102DE000898D800E2428FF7BFF7A1B79987D021243
:102DF0009018E5532438FF7B1C7D02128FDA75533F
:102E000004E4FB7D04AF53128FDAE5532410FF7BFB
:102E1000017D04128FDAE5532420FF7B497D0412E3
:102E20008FDAE5532430FF7B4A7D04128FDAE553B5
:102E30002440FF7BFF7A1B79967D04129018E5539E
:102E40002448FF755903755A10AB42AA417D0412FC
:102E5000898DE5532460FF7B1C7D04128FDA755346
:102E6000047B127D06AF53128FDAE5532410FF7BEB
:102E7000137D06128FDAE5532420FF7BFF7A1B793E
:102E80000E7D06129018E5532430FF7B317D06122B
:102E90008FDAE5532440FF7B327D06128FDAE5534B
:102EA0002450FF7B337D06128FDAE5532460FF7BCD
:102EB000347D06028FDA75530C7BFF7A1B799AE416
:102EC000FDAF531290187553187BFF7A1B79A87DBC
:102ED00002AF53129018900016E0FAA3E0FBC3EA89
:102EE00064809480E55340102430FF755902755A70
:102EF000107D0212898D800E2430FF7BFF7A1B79B2
:102F0000987D02129018E5532440FF7B1C7D02122D
:102F10008FDA7553047BFF7A1B79AE7D04AF5312B1
:102F20009018E5532450FF755903755A10AB42AA07
:102F3000417D0412898DE5532468FF7B1C7D0412BA
:102F40008FDAE4F5537BFF7A1B79277D06AF5312A6
:022F50009018D7
:012F5200225C
:104BB000E56C60061290E6E4F56C90001AE0600384
:104BC000024C997553087B17FDAF53128FDAE553EA
:104BD0002410FF7B18E4FD128FDAE5532420FF7BBD
:104BE00019E4FD128FDAE5532430FF7B21E4FD1236
:104BF0008FDAE5532440FF7B22E4FD128FDAE55380
:104C00002450FFE4FBFD128FDAE5532460FF7B02A2
:104C1000E4FD128FDA755328E54760047B23800298
:104C20007B247D03AF53128FDAE5532410FF7B09F9
:104C30007D03128FDAE5532420FF7B257D03128F3D
:104C4000DA7553087B127D06AF53128FDAE55324D1
:104C500010FF7B137D06128FDAE5532420FF7BFFC4
:104C60007A1B790E7D06129018E5532430FF7B31B4
:104C70007D06128FDAE5532440FF7B327D06128FCA
:104C8000DAE5532450FF7B337D06128FDAE5532497
:104C900060FF7B347D06028FDA7553147BFF7A1B2D
:104CA00079B8E4FDAF53129018E5477BFF60067AB0
:104CB0001B79C480047A1B79D47D03E4FF12901819
:104CC000E4F5537BFF7A1B79277D06AF53129018CA
:014CD00022C1
:104ED800E56C60061290E6E4F56C90001AE0600359
:104EE800024F897553207B60FDAF53128FDAE5536B
:104EF8002410FF7B61E4FD128FDAE5532420FFE4E0
:104F0800FBFD128FDAE5532430FF7B02E4FD128F9C
:104F1800DA7553307B287D03AF53128FDAE55324BB
:104F280010FF7B5E7D03128FDA7553087B127D06B6
:104F3800AF53128FDAE5532410FF7B137D06128FCF
:104F4800DAE5532420FF7BFF7A1B790E7D06129049
:104F580018E5532430FF7B317D06128FDAE55324A0
:104F680040FF7B327D06128FDAE5532450FF7B33F6
:104F78007D06128FDAE5532460FF7B347D06028FAD
:104F8800DA7553107BFF7A1B79E4E4FDAF53129076
:104F9800187553247BFF7A1B79F17D03AF53129068
:104FA80018E4F5537BFF7A1B79277D06AF531290DF
:014FB80018E0
:014FB90022D5
:1037F600E56C60061290E6E4F56C90001AE0600352
:103806000239197553207B37FDAF53128FDAE55312
:103816002410FF7B56E4FD128FDAE5532420FFE4E3
:10382600FBFD128FDAE5532430FF7B02E4FD128F95
:10383600DA75532490003FE0605D7B367D03AF531D
:10384600128FDAE5532410FF7B097D03128FDA907D
:10385600003FE0B40110E5532420FF7BFF7A1B797B
:10386600F97D0312901890003FE0B40210E553244E
:1038760020FF7BFF7A1B79FD7D0312901890003F95
:10388600E064037036E5532420FF7BFF7A1C790140
:103896007D0312901880247553287B377D03AF5320
:1038A600128FDAE5532410FF7B567D03128FDAE57B
:1038B600532420FF7B0B7D03128FDA7553087B128E
:1038C6007D06AF53128FDAE5532410FF7B137D0676
:1038D600128FDAE5532420FF7BFF7A1B790E7D06D3
:1038E600129018E5532430FF7B317D06128FDAE5FE
:1038F600532440FF7B327D06128FDAE5532450FFB6
:103906007B337D06128FDAE5532460FF7B347D0618
:10391600028FDA7553047BFF7A1C7905E4FDAF53F9
:1039260012901890003FE0603A75531CB4010D7B6D
:10393600FF7A1C79157D03AF5312901890003FE073
:10394600B4020D7BFF7A1C791F7D03AF53129018CA
:1039560090003FE0B403197BFF7A1C79297D03AF01
:1039660053800A7BFF7A1C79337D037F34129018CB
:10397600E4F5537BFF7A1B79277D06AF5312901827
:01398600221E
:10264000E56C60061290E6E4F56C90001AE0600319
:102650000227C87553087B65FDAF53128FDAE55327
:102660002410FF7B66E4FD128FDAE5532420FF7B04
:1026700067E4FD128FDAE5532430FF7B68E4FD1236
:102680008FDAE5532440FF7B69E4FD128FDAE553CE
:102690002450FFE4FBFD128FDAE5532460FF7B0238
:1026A000E4FD128FDA7553287B687D03AF53128FD8
:1026B000DAE5532410FF7B697D03128FDA9000184E
:1026C000E07002A3E0700FE5532420FF7B0B7D0335
:1026D000128FDA022770C3900019E0941590001849
:1026E000E09400500DE5532420FF7BFF7A1C7937DE
:1026F0008079C3900019E09465900018E094005030
:102700000DE5532420FF7BFF7A1C793A805DC3904E
:102710000019E094C9900018E09400500DE553248E
:1027200020FF7BFF7A1C793D8041C3900019E09423
:102730002D900018E09401500DE5532420FF7BFFFD
:102740007A1C79408025C3900019E094919000187C
:10275000E09401E553500B2420FF7BFF7A1C794362
:1027600080092420FF7BFF7A1C79467D0312901894
:102770007553087B127D06AF53128FDAE553241090
:10278000FF7B137D06128FDAE5532420FF7BFF7A4F
:102790001B790E7D06129018E5532430FF7B317DA6
:1027A00006128FDAE5532440FF7B327D06128FDA62
:1027B000E5532450FF7B337D06128FDAE553246006
:1027C000FF7B347D06028FDAE4F5537BFF7A1C79B8
:1027D00049FDAF5312901875531C7BFF7A1C795A30
:1027E0007D03AF53129018900018E07002A3E070C0
:1027F0000EE5532436FF7BFF7A1C7933022894C3FD
:10280000900019E09415900018E09400500DE553E5
:102810002436FF7BFF7A1C79618079C3900019E030
:102820009465900018E09400500DE5532436FF7B2A
:10283000FF7A1C7965805DC3900019E094C990000F
:1028400018E09400500DE5532436FF7BFF7A1C7985
:10285000698041C3900019E0942D900018E0940124
:10286000500DE5532436FF7BFF7A1C796D8025C31C
:10287000900019E09491900018E09401E553500BFA
:102880002436FF7BFF7A1C797180092436FF7BFF99
:102890007A1C79757D03129018E4F5537BFF7A1B3F
:0928A00079277D06AF5312901850
:0128A900220C
:103ED700E56C60061290E6E4F56C90001AE060036A
:103EE700023FC27553187B2AFDAF53128FDAE55391
:103EF7002410FF7B2BE4FD128FDAE5532420FF7B90
:103F070046E4FD128FDAE5532430FF7B62E4FD12AD
:103F17008FDAE5532440FF7B63E4FD128FDA755394
:103F27001CE51BFB7A00755901755A107D03AF53C9
:103F370012898DE5532408FF7B647D03128FDAE530
:103F4700532418FF7B2A7D03128FDAE5532428FFB9
:103F57007B2B7D03128FDAE5532438FF7B467D03E5
:103F6700128FDA7553087B127D06AF53128FDAE58D
:103F7700532410FF7B137D06128FDAE5532420FFAD
:103F87007BFF7A1B790E7D06129018E5532430FFCC
:103F97007B317D06128FDAE5532440FF7B327D06A5
:103FA700128FDAE5532450FF7B337D06128FDAE553
:103FB700532460FF7B347D06028FDA7553087BFF3D
:103FC7007A1C7979E4FDAF5312901875531C7BFF67
:103FD7007A1C79887D03AF53129018E5532418FF94
:103FE700E51BFB7A00755901755A107D0312898DFF
:103FF700E5532428FF7BFF7A1C798C7D03129018E8
:10400700E4F5537BFF7A1B79277D06AF531290188F
:014017002286
:103C4400E56C60061290E6E4F56C90001AE06003FF
:103C5400023D3E7553087B38FDAF53128FDAE553AE
:103C64002410FF7B39E4FD128FDAE5532420FF7B17
:103C74003AE4FD128FDAE5532430FF7B3BE4FD1276
:103C84008FDAE5532440FF7B0BE4FD128FDAE55312
:103C94002450FFE4FBFD128FDAE5532460FF7B021E
:103CA400E4FD128FDA7553207B387D03AF53128FF6
:103CB400DAE5532410FF7B397D03128FDAE55324B0
:103CC40020FF7B3A7D03128FDAE56F6009E5532408
:103CD40030FF7B3B8007E5532430FF7B0B7D0312D1
:103CE4008FDA7553087B127D06AF53128FDAE553D2
:103CF4002410FF7B137D06128FDAE5532420FF7B0B
:103D0400FF7A1B790E7D06129018E5532430FF7B51
:103D1400317D06128FDAE5532440FF7B327D061293
:103D24008FDAE5532450FF7B337D06128FDAE55397
:103D34002460FF7B347D06028FDA7553107BFF7A93
:103D44001C7991E4FDAF5312901875531C7BFF7AD4
:103D54001C795A7D03AF53129018E56F600DE5533B
:103D64002430FF7BFF7A1C799E800BE5532430FFBF
:103D74007BFF7A1C79337D03129018E4F5537BFFA3
:0B3D84007A1B79277D06AF53129018C0
:013D8F002211
:103AEF00E56C60061290E6E4F56C90001AE0600356
:103AFF00023C09F5537B01FDAF53128FDAE55324D6
:103B0F0010FF7B09E4FD128FDAE5532420FF7B0BB6
:103B1F00E4FD128FDAE5532430FF7B0CE4FD128FA6
:103B2F00DAE5532440FF7B40E4FD128FDAE553249E
:103B3F0050FF7B41E4FD128FDAE5532460FFE4FB75
:103B4F00FD128FDAE5532470FF7B02E4FD128FDA4A
:103B5F00755318E57460127B077D03AF53128FDA2C
:103B6F00E5532410FF7B0880107B3F7D03AF53127A
:103B7F008FDAE5532410FF7B0C7D03128FDAE553A8
:103B8F002420FF7B427D03128FDAE553242EFF7B27
:103B9F00017D03128FDAE5532440FF7B097D031269
:103BAF008FDA7553087B127D06AF53128FDAE55308
:103BBF002410FF7B137D06128FDAE5532420FF7B41
:103BCF00FF7A1B790E7D06129018E5532430FF7B88
:103BDF00317D06128FDAE5532440FF7B327D0612CA
:103BEF008FDAE5532450FF7B337D06128FDAE553CE
:103BFF002460FF7B347D06028FDA75530C7BFF7ACE
:103C0F001C79A2E4FDAF53129018755304E5747B31
:103C1F00FF60067A1C79B080047A1C79C07D03AFEF
:103C2F0053129018E4F5537BFF7A1B79277D06AF6B
:043C3F005312901874
:013C4300225E
:10091600E5737003020FFAE4F5731290E6E57514B9
:100926007003020A87147003020BB8147003020CDA
:10093600B4147003020DE0147003020F282405603E
:1009460003020FFA7553187BFF7A1C79D0E4FD7FFA
:10095600081290187B2AE4FDAF53128FDAE5532470
:1009660010FF7B2BE4FD128FDAE5532420FF7B4634
:10097600E4FD128FDAE5532430FF7B62E4FD128F2B
:10098600DAE5532440FF7B63E4FD128FDA7BFF7ABE
:100996001C79D37D027F081290187B077D02AF5326
:1009A600128FDAE5532410FF7B087D02128FDAE5F9
:1009B600532420FF7B097D02128FDAE5532430FF92
:1009C6007B0A7D02128FDAE5532440FFE4FB7D02A9
:1009D600128FDAE5532450FF7B027D02128FDA7BF9
:1009E600FF7A1C79D67D047F081290187B017D045E
:1009F600AF53128FDAE5532410FF7B097D04128F63
:100A0600DAE5532420FF7B0B7D04128FDAE55324AD
:100A160030FF7B0C7D04128FDAE5532440FFE4FBA4
:100A26007D04128FDAE5532450FF7B027D04128F7A
:100A3600DA7BFF7A1C79D97D067F081290187B0134
:100A46007D06AF53128FDAE5532410FF7B097D062E
:100A5600128FDAE5532420FF7B0B7D06128FDAE531
:100A6600532430FF7B0C7D06128FDAE5532440FFBA
:100A76007B407D06128FDAE5532450FF7B41020F3F
:100A8600F57553187BFF7A1C79DCE4FD7F0812901C
:100A9600187B07E4FDAF53128FDAE5532410FF7B72
:100AA60008E4FD128FDAE5532420FF7B36E4FD12BD
:100AB6008FDAE5532430FF7B09E4FD128FDAE55324
:100AC6002440FF7B0BE4FD128FDAE5532450FF7BB5
:100AD60037E4FD128FDA7BFF7A1C79DF7D027F080F
:100AE6001290187B537D02AF53128FDAE553241010
:100AF600FF7B547D02128FDAE5532420FF7B497D6C
:100B060002128FDAE5532430FF7B4A7D02128FDA18
:100B1600E5532440FF7B517D02128FDAE5532450C2
:100B2600FF7B527D02128FDA7BFF7A1C79E27D040D
:100B36007F081290187B387D04AF53128FDAE55385
:100B46002410FF7B397D04128FDAE5532420FF7BC6
:100B56003A7D04128FDAE5532430FFE4FB7D04125C
:100B66008FDAE5532440FF7B027D04128FDA7BFF88
:100B76007A1C79E57D067F081290187B657D06AFA5
:100B860053128FDAE5532410FF7B667D06128FDA47
:100B9600E5532420FF7B677D06128FDAE553243068
:100BA600FF7B687D06128FDAE5532440FF7B6902DE
:100BB6000FF575531A7BFF7A1C79E8E4FD7F08125E
:100BC60090187BFF7A1B7970E4FDAF53129018E5FD
:100BD600532410FF7B1CE4FD128FDAE5532420FF1B
:100BE6007B1FE4FD128FDAE5532430FF7B20E4FD02
:100BF600128FDA7553227BFF7A1C79EB7D027F0810
:100C06001290187BFF7A1B79867D02AF53129018DB
:100C1600E5532418FF7B1C7D02128FDAE553242846
:100C2600FF7B1F7D02128FDAE5532438FF7B207D80
:100C360002128FDA7BFF7A1C79EF7D047F0812900F
:100C4600187BFF7A1B798A7D04AF53129018E553FF
:100C56002418FF7B1C7D04128FDAE5532428FF7BC2
:100C66001F7D04128FDAE5532438FF7B207D0412A2
:100C76008FDA7BFF7A1C79F37D067F081290187B4A
:100C8600FF7A1B798E7D06AF53129018E553241810
:100C9600FF7B1C7D06128FDAE5532428FF7B1F7D20
:100CA60006128FDAE5532438FF7B20020FF57553C1
:100CB600227BFF7A1C79F7E4FD7F081290187BFFF0
:100CC6007A1B7992E4FDAF53129018E5532418FF6E
:100CD6007B1CE4FD128FDAE5532428FF7B1FE4FD1D
:100CE600128FDAE5532438FF7B20E4FD128FDA7584
:100CF600531E7BFF7A1C79FB7D027F081290187BBE
:100D0600177D02AF53128FDAE5532410FF7B187D4F
:100D160002128FDAE5532420FF7B197D02128FDA47
:100D2600E5532430FF7B217D02128FDAE553244000
:100D3600FF7B227D02128FDA7BFF7A1C79FF7D040E
:100D46007F081290187B037D04AF53128FDAE553A8
:100D56002410FF7B047D04128FDAE5532420FF7BE9
:100D6600037D04128FDAE5532430FF7B3C7D0412A9
:100D76008FDAE5532440FF7B1F7D04128FDAE5539B
:100D86002450FF7B207D04128FDA7BFF7A1D7903C6
:100D96007D067F081290187B477D06AF53128FDAC7
:100DA600E5532410FF7B487D06128FDAE553242095
:100DB600FF7B497D06128FDAE5532430FF7B4A7D9F
:100DC60006128FDAE5532440FFE4FB7D06128FDA24
:100DD600E5532450FF7B02020FF575531E7BFF7A05
:100DE6001D7907E4FD7F081290187B49E4FDAF5397
:100DF600128FDAE5532410FF7B51E4FD128FDAE5FA
:100E0600532420FF7B3DE4FD128FDAE5532430FFA7
:100E16007B3EE4FD128FDAE5532440FFE4FBFD122E
:100E26008FDAE5532450FF7B02E4FD128FDA7BFF55
:100E36007A1D790B7D027F081290187B567D02AFD2
:100E460053128FDAE5532410FF7B577D02128FDA97
:100E5600E5532420FF7B497D02128FDAE5532430C7
:100E6600FF7B4A7D02128FDAE5532440FFE4FB7DC7
:100E760002128FDAE5532450FF7B027D02128FDACD
:100E86007BFF7A1D790F7D047F081290187B077D02
:100E960004AF53128FDAE5532410FF7B087D04124A
:100EA6008FDAE5532420FF7B497D04128FDAE55360
:100EB6002430FF7B4A7D04128FDAE5532440FFE499
:100EC600FB7D04128FDAE5532450FF7B027D04126A
:100ED6008FDA7BFF7A1D79137D067F081290187BC7
:100EE6002F7D06AF53128FDAE5532410FF7B597D11
:100EF60006128FDAE5532420FF7B037D06128FDA74
:100F0600E5532430FF7B3C7D06128FDAE5532440FF
:100F1600FFE4FB7D06128FDAE5532450FF7B0202C5
:100F26000FF575531E7BFF7A1D7917E4FD7F0812B6
:100F360090187B60E4FDAF53128FDAE5532410FF5F
:100F46007B61E4FD128FDAE5532420FFE4FBFD12FA
:100F56008FDAE5532430FF7B02E4FD128FDA7BFF44
:100F66007A1D791B7D027F081290187B377D02AFB0
:100F760053128FDAE5532410FF7B567D02128FDA67
:100F8600E5532420FFE4FB7D02128FDAE55324307B
:100F9600FF7B027D02128FDA7BFF7A1D791F7D04AB
:100FA6007F081290187B6A7D04AF53128FDAE553DF
:100FB6002410FF7B6B7D04128FDAE5532420FF7B20
:100FC6006C7D04128FDAE5532430FF7B6D7D0412AD
:100FD6008FDA7BFF7A1D79237D067F081290187BB6
:100FE600337D06AF53128FDAE5532410FF7B347D31
:100FF60006128FDAE56664026008E56624FE54038D
:10100600700C7B7FE4FDFF128C7B7B208013E566F2
:1010160024FE5403640170147B20FDFF128C7B7B3D
:101026007F7D02E4FF128C7B7B20801CE56624FE1C
:1010360054036402701D7B20FDFF128C7B7B207D98
:1010460002E4FF128C7B7B7F7D04E4FF128C7B7BAA
:10105600208025E56624FE5403640370227B20FD70
:10106600FF128C7B7B207D02E4FF128C7B7B207D34
:0F10760004E4FF128C7B7B7F7D06E4FF128C7BF2
:011085002248
:102F5300E57370030230DAE4F5731290E6E5751455
:102F6300604F14607C14700302303F14700302300E
:102F7300771470030230A6240560030230DA755318
:102F8300187BFF7A1D7927E4FD7F081290187BFFD9
:102F93007A1D79357D027F081290187BFF7A1D799F
:102FA300427D047F081290187BFF7A1D795102300D
:102FB300D37BFF7A1D7960E4FD7F081290187BFFB5
:102FC3007A1D796F7D027F081290187BFF7A1D7935
:102FD3007F7D047F081290187BFF7A1D798E023063
:102FE300D37BFF7A1D799AE4FD7F081290187B1C2E
:102FF300E4FD7F28128FDA7BFF7A1D79A57D027F9E
:10300300081290187B1C7D027F30128FDA7BFF7AC7
:103013001D79B27D047F081290187B1C7D047F38D4
:10302300128FDA7BFF7A1D79BF7D067F0812901815
:103033007B1C7D067F38128FDA0230DA7BFF7A1D24
:1030430079CCE4FD7F081290187B1CE4FD7F3812D5
:103053008FDA7BFF7A1D79D97D027F081290187B66
:10306300FF7A1D79E87D047F081290187BFF7A1D93
:1030730079F6805C7BFF7A1E7906E4FD7F08129067
:10308300187BFF7A1E79167D027F081290187BFF4A
:103093007A1E79257D047F081290187BFF7A1E79AA
:1030A30033802D7BFF7A1E7943E4FD7F081290184D
:1030B3007BFF7A1E79537D027F081290187BFF7A7B
:1030C3001E79627D047F081290187BFF7A1E796D4A
:1030D3007D067F08129018E56624FE5403700B7B6F
:1030E3007FFDFF128C7B7B208013E56624FE540357
:1030F300640170147B20FDFF128C7B7B7F7D02E4D7
:10310300FF128C7B7B20801CE56624FE5403640243
:10311300701D7B20FDFF128C7B7B207D02E4FF1260
:103123008C7B7B7F7D04E4FF128C7B7B208025E5F9
:103133006624FE5403640370227B20FDFF128C7B04
:103143007B207D02E4FF128C7B7B207D04E4FF1255
:0B3153008C7B7B7F7D06E4FF128C7BF1
:01315E00224E
:10920000E56C60061290E6E4F56C90001AE07003DD
:07921000020916122F532280
:10401800E56C60061290E6E4F56C90001AE0600327
:104028000241027553087B07FDAF53128FDAE5533F
:104038002410FF7B08E4FD128FDAE5532420FF7B70
:1040480035E4FD128FDAE5532430FF7B36E4FD12A8
:104058008FDAE5532440FF7B09E4FD128FDAE5533C
:104068002450FF7B0BE4FD128FDAE5532460FF7BBD
:1040780037E4FD128FDA755324755902755A10AB5F
:1040880039AA387D03AF5312898DE5532410FF7B7D
:104098001D7D03128FDAE5532420FF7B1E7D03125A
:1040A8008FDA7553087B127D06AF53128FDAE5530A
:1040B8002410FF7B137D06128FDAE5532420FF7B43
:1040C800FF7A1B790E7D06129018E5532430FF7B8A
:1040D800317D06128FDAE5532440FF7B327D0612CC
:1040E8008FDAE5532450FF7B337D06128FDAE553D0
:1040F8002460FF7B347D06028FDAE4F5537BFF7A78
:104108001E7975FDAF5312901875531C75590275B9
:104118005A10AB39AA387D03AF5312898DE5532461
:1041280018FF7BFF7A1B79207D03129018E4F55362
:0D4138007BFF7A1B79277D06AF531290188C
:014145002257
:1034C900E56C60061290E6E4F56C90001AE0600382
:1034D9000235DD7553107B03FDAF53128FDAE553C7
:1034E9002410FF7B04E4FD128FDAE5532420FF7BCF
:1034F90003E4FD128FDAE5532430FF7B3CE4FD122F
:103509008FDAE5532440FF7B1FE4FD128FDAE55380
:103519002450FF7B20E4FD128FDA75532C90001B99
:10352900E0FEA3E0FF7C007D0A1219D9AA06AB07C9
:10353900755902755A107D03AF5312898DE55324CD
:1035490010FF7B2E7D03128C7BE5532418FFC007E7
:1035590090001BE0FEA3E0FF7C007D0A1219D9AAA6
:1035690004AB05755901755A10D0077D0312898D71
:10357900E5532420FF7B567D03128C7B7553087B12
:10358900127D06AF53128FDAE5532410FF7B137DAA
:1035990006128FDAE5532420FF7BFF7A1B790E7D13
:1035A90006129018E5532430FF7B317D06128FDA1D
:1035B900E5532440FF7B327D06128FDAE553245010
:1035C900FF7B337D06128FDAE5532460FF7B347D60
:1035D90006028FDA7553147BFF7A1E7986E4FDAFF4
:1035E9005312901875532C90001BE0FEA3E0FF7C4A
:1035F900007D0A1219D9AA06AB07755902755A1026
:103609007D03AF5312898DE5532410FF7B2E7D0373
:10361900128C7BE5532418FFC00790001BE0FEA322
:10362900E0FF7C007D0A1219D9AA04AB057559017E
:10363900755A10D0077D0312898DE5532420FF7B2D
:10364900567D03128C7BE4F5537BFF7A1B79277D2A
:0636590006AF53129018A9
:01365F002248
:103D9000E56C60061290E6E4F56C90001AE06003B2
:103DA000023E7C7553107B49FDAF53128FDAE55309
:103DB0002410FF7B51E4FD128FDAE5532420FF7BB2
:103DC0003DE4FD128FDAE5532430FF7B3EE4FD1223
:103DD0008FDAE5532440FFE4FBFD128FDAE553242C
:103DE00050FF7B02E4FD128FDA75532C900015E032
:103DF0007BFFB40A0D7A1E79927D03AF531290189F
:103E000080227A1E79967D03AF53129018E55324D1
:103E100010FF900015E0FB7A00755901755A107D6E
:103E20000312898D7553087B127D06AF53128FDA0A
:103E3000E5532410FF7B137D06128FDAE55324200F
:103E4000FF7BFF7A1B790E7D06129018E553243014
:103E5000FF7B317D06128FDAE5532440FF7B327DF4
:103E600006128FDAE5532450FF7B337D06128FDA7A
:103E7000E5532460FF7B347D06028FDAE4F5537B43
:103E8000FF7A1E7999FDAF5312901875532C90004C
:103E900015E07BFFB40A0D7A1E79927D03AF5312B1
:103EA000901880227A1E79967D03AF53129018E500
:103EB000532410FF900015E0FB7A00755901755AE4
:103EC000107D0312898DE4F5537BFF7A1B79277DE2
:063ED00006AF531290182A
:013ED60022C9
:104CD100E56C60061290E6E4F56C90001AE0600362
:104CE100024DA27553107B47FDAF53128FDAE55386
:104CF1002410FF7B48E4FD128FDAE5532420FF7B6B
:104D010049E4FD128FDAE5532430FF7B4AE4FD12BA
:104D11008FDAE5532440FFE4FBFD128FDAE55324DB
:104D210050FF7B02E4FD128FDA75532C7559037520
:104D31005A10AB30AA2F7D03AF5312898DE553244E
:104D410018FF7B1C7D03128FDA7553087B127D06D9
:104D5100AF53128FDAE5532410FF7B137D06128FB8
:104D6100DAE5532420FF7BFF7A1B790E7D06129032
:104D710018E5532430FF7B317D06128FDAE5532489
:104D810040FF7B327D06128FDAE5532450FF7B33DF
:104D91007D06128FDAE5532460FF7B347D06028F96
:104DA100DA7553107BFF7A1E79AAE4FDAF53129096
:104DB1001875532C755903755A10AB30AA2F7D0302
:104DC100AF5312898DE5532418FF7B1C7D03128F8D
:104DD100DAE4F5537BFF7A1B79277D06AF531290F6
:014DE10018B9
:014DE20022AE
:10471800E56C60061290E6E4F56C90001AE0600320
:10472800024800F5537B2AFDAF53128FDAE5532474
:1047380010FF7B2BE4FD128FDAE5532420FF7B5614
:10474800E4FD128FDAE5532430FF7B57E4FD128F26
:10475800DAE5532440FF7B49E4FD128FDAE5532460
:1047680050FF7B4AE4FD128FDAE5532460FFE4FB37
:10477800FD128FDAE5532470FF7B02E4FD128FDA15
:1047880075532C755903755A10AB11AA107D03AFD8
:104798005312898DE5532418FF7B1C7D03128FDA91
:1047A8007553087B127D06AF53128FDAE553241038
:1047B800FF7B137D06128FDAE5532420FF7BFF7AF7
:1047C8001B790E7D06129018E5532430FF7B317D4E
:1047D80006128FDAE5532440FF7B327D06128FDA0A
:1047E800E5532450FF7B337D06128FDAE5532460AE
:1047F800FF7B347D06028FDA7553147BFF7A1E79AE
:10480800B7E4FDAF5312901875532C755903755AB8
:1048180010AB11AA107D03AF5312898DE5532418EC
:10482800FF7B1C7D03128FDAE4F5537BFF7A1B793B
:08483800277D06AF5312901812
:014840002255
:10484100E56C60061290E6E4F56C90001AE06003F6
:10485100024929F5537B2AFDAF53128FDAE5532420
:1048610010FF7B2BE4FD128FDAE5532420FF7B0739
:10487100E4FD128FDAE5532430FF7B08E4FD128F4B
:10488100DAE5532440FF7B49E4FD128FDAE5532436
:1048910050FF7B4AE4FD128FDAE5532460FFE4FB0D
:1048A100FD128FDAE5532470FF7B02E4FD128FDAEB
:1048B10075532C755903755A10AB13AA127D03AFAA
:1048C1005312898DE5532418FF7B1C7D03128FDA67
:1048D1007553087B127D06AF53128FDAE55324100E
:1048E100FF7B137D06128FDAE5532420FF7BFF7ACD
:1048F1001B790E7D06129018E5532430FF7B317D24
:1049010006128FDAE5532440FF7B327D06128FDADF
:10491100E5532450FF7B337D06128FDAE553246083
:10492100FF7B347D06028FDA7553187BFF7A1E797F
:10493100C3E4FDAF5312901875532C755903755A82
:1049410010AB13AA127D03AF5312898DE5532418BE
:10495100FF7B1C7D03128FDAE4F5537BFF7A1B7911
:08496100277D06AF53129018E8
:01496900222B
:10810D00E56C60061290E6E4F56C90001AE0707C68
:10811D007553247B077D01AF53128FDAE55324107D
:10812D00FF7B087D01128FDAE5532420FF7B287D2C
:10813D0001128FDAE5532430FF7BFF7A1E79CE7D55
:10814D00011290187553107B297D06AF53128FDAEB
:10815D00E5532410FF7B167D06128FDAE55324209C
:10816D00FF7B2A7D06128FDAE5532430FF7B2B7DB2
:10817D0006128FDAE5532440FF7B2C7D06128FDA31
:10818D00E5532450FF7B2D7D06028FDA75531C7B42
:10819D00FF7A1E79D07D01AF531290187553087B6D
:0C81AD00FF7A1E79DA7D06AF531290189D
:0181B90022A3
:1081BA00E56C60061290E6E4F56C90001AE0707CBB
:1081CA007553247B2E7D01AF53128FDAE5532410A9
:1081DA00FF7B0B7D01128FDAE5532420FF7B0C7D98
:1081EA0001128FDAE5532430FF7BFF7A1E79CE7DA8
:1081FA00011290187553107B137D06AF53128FDA54
:10820A00E5532410FF7B2F7D06128FDAE5532420D5
:10821A00FF7B137D06128FDAE5532430FF7B307D16
:10822A0006128FDAE5532440FF7B2C7D06128FDA83
:10823A00E5532450FF7B2D7D06028FDA7553087BA8
:10824A00FF7A1E79E97D01AF5312901875530C7BA2
:0C825A00FF7A1E79F87D06AF53129018D1
:0182660022F5
:107BC400E56C60061290E6E4F56C90001AE0600340
:107BD400027C5F75531C7B037D01AF53128FDAE582
:107BE400532410FF7B3C7D01128FDAE5532420FFE0
:107BF4007B5C7D01128FDAE5532430FF7B5D7D01D0
:107C0400128FDAE5532440FF7BFF7A1E79CE7D0183
:107C14001290187553107B5A7D06AF53128FDAE514
:107C2400532410FF7B5B7D06128FDAE5532420FF7B
:107C3400E4FB7D06128FDAE5532430FF7B2F7D06AB
:107C4400128FDAE5532440FF7B597D06128FDAE563
:107C5400532450FF7B117D06028FDAE4F5537BFF3A
:107C64007A1F7906FDAF531290187BFF7A1F79179C
:107C74007D02AF531290187BFF7A1F79287D04AFE1
:107C8400531290187BFF7A1F79397D06AF531290F7
:017C940018D7
:017C950022CC
:1028AA00E56C60061290E6E4F56C90001DE0FEA36C
:1028BA00E0FFD390000EE09F90000DE09E400BEFEA
:1028CA0024D4FFEE34FEF0A3EFF090001AE0706A11
:1028DA0075530C7B437D03AF53128FDAE5532410F3
:1028EA00FF7B447D03128FDAE5532420FF7B457D6D
:1028FA0003128FDAE5532430FF7B2A7D03128FDA25
:10290A00E5532440FF7B2B7D03128FDAE5532450D5
:10291A00FF7B467D03128FDAE5532460FF7BFF7A43
:10292A001E79CE7D03129018E4FBFDFF128FDA7B2D
:10293A0001E4FD7F10128FDA801C75531C7BFF7A2D
:10294A001F794A7D03AF531290187BFF7A1F795380
:10295A00E4FDFF129018E51BD394014012E51BFB1E
:10296A007A00755901755A107D037F7712898D7B1C
:10297A003AE4FD7F20128C7B755903755A10AB42DD
:10298A00AA41E4FD7F2812898D7B1CE4FD7F441255
:10299A008FDA755903755A10AB2CAA2BE4FD7F67A1
:1029AA0012898DE53F7003022A6590001BE0FEA3A1
:1029BA00E0FF7C007D0A1219D9AA06AB07755902F5
:1029CA00755A107D06E4FF12898D7B2E7D067F10D5
:1029DA00128C7B90001BE0FEA3E0FF7C007D0A12B4
:1029EA0019D9AA04AB05755901755A107D067F18C5
:1029FA0012898D7B567D067F20128C7B7B207D067B
:102A0A007F28128C7B900016E0FEA3E0FFC3EE64E1
:102A1A0080948040068F547B20800B900016A3E0A0
:102A2A00F404F5547B2D7D067F2C128C7BE554FB38
:102A3A007A00755902755A107D067F3412898D7B8A
:102A4A001C7D067F44128FDA3081047B2E80027B44
:102A5A00207D067F5A128C7B022AF47B037D06E4D2
:102A6A00FF128FDA7B047D067F10128FDA7B3A7DA4
:102A7A00067F20128C7B90001BE0FEA3E0FF7C0007
:102A8A007D0A1219D9AA06AB07755902755A107D23
:102A9A00067F2812898D7B2E7D067F38128C7B90CB
:102AAA00001BE0FEA3E0FF7C007D0A1219D9AA04EC
:102ABA00AB05755901755A107D067F4012898D7BC9
:102ACA00567D067F48128C7B7B207D067F50128CB8
:102ADA007B7B207D067F58128C7B3081047B2E8085
:102AEA00027B207D067F5A128C7B755903755A101A
:0B2AFA00AB25AA247D067F6412898DA5
:012B050022AD
:10231100EF700302263F128ADBE56DB4190040031A
:1023210002263F90232BF82828730223FE022376EE
:102331000225E602242C0224150225300225190269
:1023410024D402250202261202244302246002241C
:102351007D02249A0224B70224EB02254702255E5E
:1023610002257502258C0225A30225BA0225D00279
:1023710025FC022628E5684567707A90000FE0FE8B
:10238100A3E0FFC390001CE09F90001BE09E501152
:10239100E56564046003756C01127BC47565048096
:1023A1004EE52145207011E56564036003756C01FC
:1023B1001281BA7565038037E5237011E565640202
:1023C1006003756C0112810D7565028022E518604C
:1023D10011E56564016003756C011228AA75650138
:1023E100800DE5656003756C0112331BE4F56575BD
:1023F1006700756864AF3712398702263CE5684586
:10240100677009129200756700756864AF371289A9
:102411001302263CE56845677009124A8E7567000C
:10242100756864AF37128BB202263CE56845677068
:102431000912496A756700756864AF37128DE00249
:10244100263C754100754232E568456770091241C5
:1024510046756700756864AF3712879E02263C7522
:102461004100754264E568456770091242707567FD
:1024710000756864AF3712843E02263C75410075D1
:1024810042C8E5684567700912439A756700756827
:1024910064AF371284D802263C75410175422CE5A0
:1024A10068456770091244C4756700756864AF3781
:1024B10012830902263C754101754290E568456722
:1024C10070091245EE756700756864AF371282674F
:1024D10002263CE56845677009122D407567007555
:1024E1006864AF37128D3C02263CE5684567700988
:1024F100124BB0756700756864AF37128ECB022638
:102501003CE56845677009123C447567007568646D
:10251100AF37124FBA02263CE56845677009124091
:1025210018756700756864AF37128CDC02263CE5CC
:102531006845677009123AEF756700756864AF37CF
:10254100128F1302263CE568456770091234C9757C
:102551006700756864AF37128F5802263CE56845FD
:10256100677009124CD1756700756864AF37128CBA
:102571001802263CE56845677009123D90756700B1
:10258100756864AF37128D9002263CE56845677027
:1025910009124718756700756864AF37128A01021E
:1025A100263CE56845677009124841756700756802
:1025B10064AF37128A6E02263CE5684567700912DE
:1025C1003660756700756864AF37128898806CE56E
:1025D1006845677009124ED8756700756864AF3732
:1025E100128E2F8056E56845677009123ED77567D0
:1025F10000756864AF37128E7E8040E5684567706C
:10260100091237F6756700756864AF37127E2C8042
:102611002AE5684567700912264075670075686488
:10262100AF37127FAA8014E56845677009128604E6
:0E263100756700756864AF37129156E4F5378F
:01263F002278
:10398700EF24FE6052147003023A3C24F8700302DD
:103997003AAD147003023AC2240B6003023AEE9068
:1039A700001DE0FEA3E0FFD390000EE09F90000D06
:1039B700E09E4003023AE7E54265117004E5416580
:1039C70010600D85414F8542508510418511422277
:1039D700854F418550422290001DE0FEA3E0FFD3B2
:1039E70090000EE09F90000DE09E4003023AE7E54D
:1039F7002145207003023AEEE5237003023AEE9068
:103A0700004EE06003023AEEE522B4010A0542E502
:103A170042700F0541800B740A2542F542E4354197
:103A2700F541C3E5429530E541952F4065852F4126
:103A3700853042805D90001DE0FEA3E0FFD390003B
:103A47000EE09F90000DE09E4003023AE7E5214516
:103A5700207003023AEEE5237003023AEE90004E1F
:103A6700E06003023AEEE522B4010AE5421542702E
:103A7700101541800C74F62542F54274FF3541F567
:103A870041D3E5429428E5419400500675410075FD
:103A9700422885414F854250E4F529F52A752D03C3
:103AA700752EE802917AE4F56D756602F575757302
:103AB70001756C0190000DF0A3F02290004EE060BC
:103AC70004E4F0800690004E7401F090001DE0FEC3
:103AD700A3E0FFD390000EE09F90000DE09E40070B
:073AE700E4F0A3F0756C018F
:013AEE0022B5
:108BB200EF24FE601F14603524F86053240A7055B8
:108BC200E4F56D757301756C01E56DD3941940453B
:108BD200756D0222053BE53B7002053AD394E0E550
:108BE2003A94014021753A00753B018019E53B1525
:108BF2003B7002153AC3E53B9401E53A94005006F6
:108C0200753A01753BE0853A20853B21021F587574
:068C12006D01756C0122EA
:108DE000EF24FE601F14602C24F8603C240A703EBF
:108DF000E4F56D757301756C01E56DD39419402E22
:108E0000756D0222E53EC394635004053E801375E0
:108E10003E63800EE53ED394014004153E80037509
:0F8E20003E01853E23021F58756D01756C0122BE
:108D3C00EF24FE601F14603024F86041240A704355
:108D4C00E4F56D757301756C01E56DD394194033C1
:108D5C00756D0222E53F702BE543C3944650040524
:108D6C00438017E4F5438012E53F7017E543D39435
:108D7C0000400415438003754346021F58756D016E
:048D8C00756C0122DF
:10891300EF24FE601B14603A24F86067240A706930
:10892300756C01E566B41904756D012285666D22C7
:10893300E566C39419500405668003756602E5660F
:10894300540364027043757301E5661313543FF5D2
:108953007522E566D3940240041566800375661993
:10896300E566B419097573011313543FF575E5668C
:108973005403FFBF0113757301E5661313543F14CA
:0A898300F57522756D01756C012277
:108CDC00EF24FE601F14603524F8604D240A704F99
:108CEC00E4F56D757301756C01E56DD39419403F16
:108CFC00756D02220539E53970020538D3940AE501
:108D0C0038940040217538007539018019E5391502
:108D1C003970021538C3E5399401E53894005006D2
:108D2C0075380075390A021F58756D01756C012272
:108F5800EF24FE601F14602624F86030240A703263
:108F6800E4F56D757301756C01E56DD394194022B4
:108F7800756D02220552E552700C05518008E552C4
:108F8800155270021551121F58027C96756D0175A5
:038F98006C012247
:108D9000EF24FE601F14603224F8603D240A703F07
:108DA000E4F56D757301756C01E56DD39419402F71
:108DB000756D0222900015E0C394055005E004F0A3
:108DC00080149000157401F0800C900015E0D3948D
:108DD000014003E014F0021F58756D01756C01220B
:108C1800EF24FE601F14603A24F86050240A705252
:108C2800E4F56D757301756C01E56DD394194042D7
:108C3800756D0222740A2530F530E4352FF52FD3EF
:108C4800E53094BCE52F9402401F752F01753090D4
:108C58008017D3E5309464E52F9400400C74F62512
:108C680030F53074FF352FF52F021F58756D0175DB
:038C78006C01226A
:107FAA00EF24FE601A14605F24F8700302805624DE
:107FBA000A600302805CE4F56D75730102805990D2
:107FCA000018E0FEA3E0FF4E700A900018F0A374B8
:107FDA0014F0801EEF64144E700A900018F0A37417
:107FEA0064F0800E900019E02464F0900018E034E8
:107FFA0000F0D3900019E094F4900018E094014046
:10800A0048E4F0A3F08042900018E0FEA3E0FFD31A
:10801A009464EE9400400DE0249CF0900018E03443
:10802A00FFF08025EF64644E700A900018F0A37484
:10803A0014F08015EF64144E9000187005F0A3F048
:10804A0080077401F0A374F4F0021F58756D01756E
:03805A006C012294
:108A0100EF24FE601F14603C24F8605A240A705C55
:108A1100E4F56D757301756C01E56DD39419404CE6
:108A2100756D0222C3E5119490E5109401500D7407
:108A31000A2511F511E43510F5108027751001751F
:108A41001190801FD3E5119432E5109400400E740B
:108A5100F62511F51174FF3510F51080067510001B
:0D8A6100751132021F58756D01756C0122F0
:108A6E00EF24FE601F14603C24F8605A240A705CE8
:108A7E00E4F56D757301756C01E56DD39419404C79
:108A8E00756D0222C3E5139490E5129401500D7496
:108A9E000A2513F513E43512F512802775120175A8
:108AAE001390801FD3E5139400E5129400400E74CA
:108ABE00F62513F51374FF3512F5128006751200A4
:0D8ACE00751328021F58756D01756C01228B
:10915600EF24F56018240A701AE4F56D757301752D
:109166006C01E56DD39419400A756D0222756D0187
:04917600756C0122F1
:10889800EF24FE601F14604524F86068240A706A9B
:1088A800E4F56D757301756C01E56DD39419405A43
:1088B800756D0222C3900010E0942C90000FE09494
:1088C80001500EA3E004F0703890000FE004F0802F
:1088D8003090000F7401F0A3742CF08024D3900022
:1088E80010E0940090000FE09400400EA3E024FFF5
:1088F800F090000FE034FFF08007E490000FF0A341
:0B890800F0021F58756D01756C012214
:10879E00EF24FE601F14604F24F8606C240A706E84
:1087AE00E4F56D757301756C01E56DD39419405E3A
:1087BE00756D0222900035E0FEA3E0FFC390000A23
:1087CE00E09F900009E09E500EA3E004F0703390FD
:1087DE000009E004F0802BEF24CEFFEE34FF900072
:1087EE0009F0A3EFF0801BD390000AE094019000F3
:1087FE0009E09400400CA3E024FFF0900009E0345F
:0F880E00FFF0853E23021F58756D01756C012226
:10843E00EF24FE602514605524F870030284D124C5
:10844E000A60030284D7E4F56D757301756C01E55E
:10845E006DD394194073756D0222900039E0FEA31E
:10846E00E0FFC3900036E09F900035E09E500EA3D3
:10847E00E004F07048900035E004F08040EF24CE28
:10848E00FFEE34FF900035F0A3EFF080309000093E
:10849E00E0FEA3E0FFD3900036E09F900035E09E13
:1084AE00400EA3E024FFF0900035E034FFF0800D85
:1084BE00EF2432FFE43E900035F0A3EFF0853E232B
:0A84CE00021F58756D01756C012244
